:0330000002300695
:03305F0002300339
:0330030002306236
:20306200748CC0E0744EC0E012412C15811581123D49E5828583F09010D3F0E5F0A3F0904F
:2030820010D3E0FEA3E0FFC374809E740C9F400DEE9420EF94004005EE540F603074A6C005
:2030A200E0744EC0E012412C1581158174BCC0E0744EC0E012412C15811581123D49E58245
:2030C2008583F09010D3F0E5F0A3F080B28E828F83124271AE82AF837D009010D6EEF0EFF0
:2030E200A3F0EDA3F0C006C007C00574D6C0E0744EC0E07480C0E0124448E58124FAF581F1
:203102009010D3E0FEA3E0FF8E828F83124271AE82AF837D009010D9EEF0EFA3F0EDA3F0BB
:20312200C006C007C00574EFC0E0744EC0E07480C0E0124448E58124FAF5819010D9E0FD54
:20314200A3E0FEA3E0FFED4E600302323B7408C0E0744FC0E012412C15811581743DC0E0E2
:20316200744FC0E012412C158115819010D6E0FDA3E0FEA3E0FF8D828E838FF0123DB074D7
:2031820051C0E0744FC0E012412C15811581123D49E5828583F09010D3F0E5F0A3F09010CC
:2031A200D3E0FEA3E0FFC3EE94D0EF9407400302323EC3EE9420EF9400500302323EEE5497
:2031C2000F600280778E828F83124271AE82AF837D009010D6EEF0EFA3F0EDA3F0C006C0E3
:2031E20007C00574D6C0E0744EC0E07480C0E0124448E58124FAF5819010D3E0FEA3E0FFB6
:203202008E828F83124271AE82AF837D009010D9EEF0EFA3F0EDA3F0C006C007C00574EFD8
:20322200C0E0744EC0E07480C0E0124448E58124FAF5811232420231A012324290000022CD
:203242009012A0E4F0A3F09012A2F0A3F0746FC0E0744FC0E012412C15811581750A017576
:203262000B00123DA2AC829010D5ECF07D008C828D83123D857489C0E0744FC0E012412CE3
:20328200158115819010D5E0FDBD0A0280D4BD0D0280CF9012A0E02401F0A3E03400F08D0B
:2032A200047D009010CFECF0EDA3F0BC0A05BD000280AFC3EC9461ED94005003023345C352
:2032C200747A9CE49D407CC004C005748CC0E0744FC0E012412CE58124FCF5819012A2E0FA
:2032E2002401F0A3E03400F09012A2E0FCA3E0FD9010D3E0FAA3E0FBC3EA9CEB9D501DC0A7
:2033020005C004749FC0E0744FC0E07480C0E0124448158115811581D004D0059010D6E0D9
:20332200F9A3E0FAA3E0FB1CBCFF011DEC29F9ED3AFA9010D5E0FD89828A838BF01241112A
:203342000232649010D5E0FDBD2B02801BBD2D030234E1BD3D030235ACBD3F03023790BD93
:203362004003023688023D37050AE4B50A02050BC00AC00B74B0C0E0744FC0E012412CE5EE
:203382008124FCF58174BEC0E0744FC0E012412C15811581E50A250AFCE50B33FDEC24A347
:2033A200FAED340FFBC005C004C003C002123D49A882A983D002D003D004D0058A828B8382
:2033C200E8F0E9A3F0A80AA90B8A828B83E0F508A3E0F509C3742C950874019509400AE577
:2033E20008941EE50994005071C000C001C005C004C003C002C001C00074CDC0E0744FC05A
:20340200E012412C1581158174DCC0E0744FC0E012412C15811581D000D001D002D003D00B
:2034220004D005EC24A3F8ED340FF9C005C004C003C002C001C000123D49AE82AF83D00084
:20344200D001D002D003D004D00588828983EEF0EFA3F0D001D0000233CB90138BE8F0E945
:20346200A3F09000031243DAAE82AF83EE24D6FEEF3410FF850882850983C007C00612427A
:2034820071AC82AD83D006D0077B008E828F83ECF0EDA3F0EBA3F0C007C006C004C005C061
:2034A2000374F1C0E0744FC0E07480C0E0124448E58124FAF581D006D0078E828F83E0FEC6
:2034C200A3E0FFA3E0FDEE4F60030232647411C0E07450C0E012412C158115810232647470
:2034E20047C0E07450C0E012412C15811581123D49AE82AF839010D1EEF0EFA3F0EE4F705C
:203502000302359A8E048F05C3E50A9CE50B9D50127461C0E07450C0E012412C15811581EE
:2035220002326490138BEEF0EFA3F09000031243DAAE82AF83EE24D6F582EF3410F583E055
:20354200FDA3E0FEA3E0FF8D828E838FF0123DB09010D1E0FEA3E0FF90138BEEF0EFA3F06C
:203562009000031243DAAE82AF83EE24D6F582EF3410F583E4F0A3F0A3F09010D1E0C0E030
:20358200A3E0C0E0747BC0E07450C0E012412CE58124FCF581023264748EC0E07450C0E0FA
:2035A20012412C15811581023264900FA1E4F0A3F09012A2E0FEA3E0FF900FA1E0FCA3E0DC
:2035C200EC540F704BC007C0067489C0E0744FC0E012412C158115819010D6E0FBA3E0FCD7
:2035E200A3E0FD900FA1E0F9A3E0FAE92BFBEA3CFCC003C004C00574A9C0E07450C0E074A1
:2036020080C0E0124448E58124FAF581D006D0079010D6E0FBA3E0FCA3E0FD900FA1E0F9DA
:20362200A3E0FAE92BFBEA3CFC8B828C838DF0124E6AFB7D00C007C006C003C00574ACC00A
:20364200E07450C0E07480C0E0124448E58124FBF581D006D007900FA1E02401F0A3E0345E
:2036620000F0900FA1E0FCA3E0FDC3EE9CEF9D40030235BB7489C0E0744FC0E012412C151A
:2036820081158102326474B0C0E07450C0E012412C15811581900FA1E4F0A3F0AE0AAF0B8D
:2036A200900FA1E0FCA3E0FD90138BECF0EDA3F0900003C007C0061243DAAC82AD83EC2425
:2036C200D6F582ED3410F583E0FBA3E0FCA3E0FD8B828C838DF0123DB0D006D007900FA193
:2036E200E02401F0A3E03400F0900FA1E0FCA3E0FDC3EE9CEF9D50A874E1C0E07450C0E066
:2037020012412C158115819012A2E4F0A3F0123D49AE82AF839010D3EEF0EFA3F08E828FE5
:2037220083124271AE82AF837D009010D6EEF0EFA3F0EDA3F0C006C007C00574FAC0E07436
:2037420050C0E07480C0E0124448E58124FAF5819010D3E0FEA3E0FF8E828F83124271AEE3
:2037620082AF837D009010D9EEF0EFA3F0EDA3F0C006C007C0057413C0E07451C0E07480EB
:20378200C0E0124448E58124FAF581023264E4C0E0C0E0742CC0E07451C0E012412CE581A9
:2037A20024FCF5819010D3E0FEA3E0FF901298EEF0EFA3F09012A2E0FCA3E0FD90129AEC3C
:2037C200F0EDA3F090129CEEC39CF0EF9DA3F09012A0E0FEA3E0FFEE24FFFCEF34FFFD907F
:2037E200129EECF0EDA3F0C007C006E4C0E0C0E07438C0E07451C0E012412CE58124FCF55F
:2038020081901298E0C0E0A3E0C0E0744BC0E07451C0E012412CE58124FCF58190129AE0ED
:20382200C0E0A3E0C0E07466C0E07451C0E012412CE58124FCF5819010D6E0FBA3E0FCA3F6
:20384200E0FDC003C004C005747FC0E07451C0E07480C0E0124448E58124FAF581D006D073
:20386200079010D6E0FBA3E0FCA3E0FD9010D3E0F9A3E0FAE92BFBEA3CFC1BBBFF011CC043
:2038820007C006C003C004C0057495C0E07451C0E07480C0E0124448E58124FAF581901231
:2038A2009CE0C0E0A3E0C0E074A9C0E07451C0E012412CE58124FCF58190129EE0C0E0A3C7
:2038C200E0C0E074C0C0E07451C0E012412CE58124FCF581D006D0079010D9E0FBA3E0FC32
:2038E200A3E0FDEB4C7003023A1FC007C0067401C0E0E4C0E074D8C0E07451C0E07480C016
:20390200E0124448E58124FBF581D006D0079010D3E0FCA3E0FD901298ECF0EDA3F0901278
:203922009AE4F0A3F090129CECF0EDA3F01EBEFF011F90129EEEF0EFA3F07401C0E0E4C096
:20394200E07438C0E07451C0E012412CE58124FCF581901298E0C0E0A3E0C0E0744BC0E01D
:203962007451C0E012412CE58124FCF58190129AE0C0E0A3E0C0E07466C0E07451C0E01295
:20398200412CE58124FCF5819010D9E0FDA3E0FEA3E0FFC005C006C007747FC0E07451C0F9
:2039A200E07480C0E0124448E58124FAF5819010D9E0FDA3E0FEA3E0FF9010D3E0FBA3E0CF
:2039C200FCEB2DFDEC3EFE1DBDFF011EC005C006C0077495C0E07451C0E07480C0E012446A
:2039E20048E58124FAF58190129CE0C0E0A3E0C0E074A9C0E07451C0E012412CE58124FC7B
:203A0200F58190129EE0C0E0A3E0C0E074C0C0E07451C0E012412CE58124FCF5817489C0DA
:203A2200E0744FC0E012412C15811581900FA17402F0E4A3F09012A0E0FEA3E0FFEE24FFC6
:203A4200F508EF34FFF509AC0AAD0B900FA1E0FAA3E0FBC3EC9AED9B5003023C2D90138B84
:203A6200EAF0EBA3F0900003C005C004C003C0021243DAA882A983D002D003D004D005E890
:203A820024D6F582E93410F583E0F8A3E0F9A3E0FFE8497003023C1EEA2AFEEB33FFEE24F7
:203AA200A3F582EF340FF583E0FEA3E0FF901298EEF0EFA3F090129AE0F8A3E0F990129C78
:203AC200EEC398F0EF99A3F090129EE508F0E509A3F0C005C004C002C00374E5C0E0745126
:203AE200C0E012412CE58124FCF581901298E0C0E0A3E0C0E0744BC0E07451C0E012412C89
:203B0200E58124FCF581E4C0E0C0E07466C0E07451C0E012412CE58124FCF581900FA1E009
:203B2200FEA3E0FF90138BEEF0EFA3F09000031243DAAE82AF83EE24D6F582EF3410F58347
:203B4200E0FBA3E0FEA3E0FFC003C006C007747FC0E07451C0E07480C0E0124448E5812481
:203B6200FAF581D004D005900FA1E0FEA3E0FF90138BEEF0EFA3F0900003C007C006C00517
:203B8200C0041243DAAA82AB83D004D005D006D007EA24D6F582EB3410F583E0F9A3E0FA28
:203BA200A3E0FBEE2EFEEF33FFEE24A3F582EF340FF583E0FEA3E0FFEE29F9EF3AFA19B90F
:203BC200FF011AC005C004C001C002C0037495C0E07451C0E07480C0E0124448E58124FA36
:203BE200F58190129CE0C0E0A3E0C0E074A9C0E07451C0E012412CE58124FCF58190129E8F
:203C0200E0C0E0A3E0C0E074C0C0E07451C0E012412CE58124FCF581D004D005900FA1E082
:203C22002401F0A3E03400F0023A4D7489C0E0744FC0E012412C15811581900FA1E4F0A3DB
:203C4200F09012A2E0FEA3E0FF900FA1E0FCA3E0FDC3EC9EED9F5071EC540F7017C007C03B
:203C6200067489C0E0744FC0E012412C15811581D006D0079010D6E0FBA3E0FCA3E0FD9004
:203C82000FA1E0F9A3E0FAE92BFBEA3CFC8B828C838DF0124E6AFB7D00C007C006C003C000
:203CA2000574F9C0E07451C0E07480C0E0124448E58124FBF581D006D007900FA1E024016C
:203CC200F0A3E03400F0023C4B7489C0E0744FC0E012412C15811581900FA1E4F0A3F090E0
:203CE20012A2E0FEA3E0FF9010D6E0FBA3E0FCA3E0FD900FA1E0F9A3E0FAE92BFBEA3CFC97
:203D02008B828C838DF0E4124111900FA1E02401F0A3E03400F0900FA1E0FCA3E0FDC3EE97
:203D22009CEF9D50C29012A0E4F0A3F09012A2F0A3F00232647489C0E0744FC0E012412CC0
:203D4200158115810232649012A475F0001240279012A475F000123F07AE82AF83C007C08D
:203D620006C006C00774FEC0E07451C0E07480C0E0124448E58124FBF581D006D0078E824D
:203D82008F8322AF83E58290136CF0EFA3F03099FD90136CE0FEA3E08E99C2999000002269
:0E3DA20010980280FBAE997F008E828F8322E4
:204E8A00A00F5370656369667920746865206275666665722073697A650A0D00496E76610B
:204EAA006C6964206275666665722073697A650A0D00456E7465722061206E657720627543
:204ECA00666665722073697A650A0D0041646472657373206F66206275666665725F303D12
:204EEA0025700A0D0041646472657373206F66206275666665725F313D25700A0D00457277
:204F0A00726F722E204E6F7420656E6F75676820737061636520617661696C61626C652002
:204F2A00666F7220626F746820627566666572730A0D004672656520626F74682062756683
:204F4A00666572730A0D005072696E74206120736D616C6C6572206275666665722073694C
:204F6A007A650A0D000A0A0D656E7465722074686520636861726163746572730A0D000A30
:204F8A000D000A0D61736369692076616C75653D25640A0D004275666665722069732066E4
:204FAA00756C6C0A0D00616464206275666665725F2564000A0D6275666665725F73697A92
:204FCA00653D000A0D696E76616C69642073697A65000A0D76616C6964206275666665728B
:204FEA005F73697A653D000A0D61646472657373206F66206E6577206275666665722069D1
:20500A00733D25700A0D000A0D4E6F20737061636520666F72206164646974696F6E206FC8
:20502A0066206D6F7265206275666665727320746F2074686520686561700A0D000A0D735D
:20504A00656C65637420612076616C6964206275666665723D20000A0D4275666665722000
:20506A00646F6573206E6F742065786973740A0D000A0D62756666657225642066726565CA
:20508A00640A0D004275666665725F302063616E6E6F742062652064656C657465640025FC
:2050AA007000202578000A0D6672656520616C6C206275666665727320616E6420616C6CEE
:2050CA006F63617465206E6577206275666665722073697A6520000A0D74616B65206E650C
:2050EA0077206275666665722073697A650A0D0061646472657373206F66206275666665A0
:20510A00725F303D25700A0D0061646472657373206F66206275666665725F313D25700ABA
:20512A000D000A0D6275666665725F2564000A0D6275666665725F6E756D6265723D2564A0
:20514A00000A0D6275666665725F616C6C6F63617465645F73697A653D2564000A0D6275DE
:20516A00666665725F73706163655F66696C6C65643D2564000A0D6275666665725F7374AB
:20518A006172745F6164643D2570000A0D6275666665725F656E645F6164643D2570000AD9
:2051AA000D6275666665725F667265655F53706163653D2564000A0D6E6F5F6F665F6368FA
:2051CA0061726163746572733D25640A0D000A0A0D6275666665725F2564000A0A0D627518
:2051EA00666665725F6E756D6265723D25640025632020005468652076616C756520656E3B
:0F520A0074657265642069732025642E0A0D0097
:045224000000010085
:203DB000AFF0AE83E58290136EF0EEA3F0EFA3F090136EE0FDA3E0FEA3E090136EE0F5F0F0
:203DD000A3E045F0700122901373E4F0A3F0901383E0FBA3E0FC901371EBF0ECA3F090137A
:203DF000757483F07413A3F0901371E0FBA3E0FC4B60418B018C02C003C0048D008E04C360
:203E1000E998EA9CD004D003502A901373EBF0ECA3F074022BFBE43CFC901375EBF0ECA3C0
:203E3000F08B828C83E0FBA3E0FC901371EBF0ECA3F080B4901371E0FEA3E0FF90136EE005
:203E5000FBA3E0FCA3E0EB24FEFBEC34FFFC74022BFAE43CFD8A828D83EEF0EFA3F090135B
:203E700075E0F8A3E0F988828983EBF0ECA3F08B828C83E0F8A3E0F9EEB50033EFB5012FDF
:203E900088828983A3A3E0FEA3E0FF8A828D83EEF0EFA3F08B828C83E0FEA3E0FF8E828FBF
:203EB00083E0FEA3E0FF8B828C83EEF0EFA3F0901373E0FEA3E0FF4E603C8E828F83E0F839
:203ED000A3E0F9E8B5032FE9B5042B8B828C83E0FBA3E0FC8E828F83EBF0ECA3F074022E24
:173EF000FEE43FFF8A828D83E0FAA3E0FD8E828F83EAF0EDA3F02287
:06303500E478FFF6D8FD6F
:203F0700AFF0AE83E582901377F0EEA3F0EFA3F090137AE4F0A3F0901377E0FDA3E0FEA3B7
:203F2700E0FF8D828E838FF0124E6AFCBC20028003BC09120DBD00010E901377EDF0EEA39D
:203F4700F0EFA3F080DC901377EDF0EEA3F0EFA3F08D828E838FF0124E6AFC90137CE4BC6E
:203F67002D0104F0BC2D028003BC2B0E90137774012DF0E43EA3F0EFA3F0901377E0FDA338
:203F8700E0FEA3E0FF8D828E838FF0124E6AFCBC3000405DEC24C6405890137AE0FBA3E0E3
:203FA700FC90138BEBF0ECA3F090000AC007C006C0051243DAAB82AC83D005D006D0078DF0
:203FC700828E838FF0124E6AFAA3AD82AE83901377EDF0EEA3F0EFA3F08A017A00E924D025
:203FE700F9EA34FFFA90137AE92BF0EA3CA3F08094901377EDF0EEA3F0EFA3F090137CE0C3
:20400700601190137AE0FEA3E0FFC3E49EFEE49FFF800890137AE0FEA3E0FF8E828F83229D
:203013007904E94400601B7A0190522478C475A013E493F2A308B8000205A0D9F4DAF27512
:02303300A0FFFC
:20402700AFF0AE83E58290137DF0EEA3F0EFA3F0901380E4F0A3F0123DA2AE82AF83BE088C
:2040470002800DBE0A02805FBE0D02805A0240D6901380E0FDA3E0FF901380E0F5F0A3E075
:2040670045F060D3900008C007C005123D85900020123D85900008123D85D005D00790139A
:204087007DE024FFFAA3E034FFFBA3E0FC90137DEAF0EBA3F0ECA3F01DBDFF011F9013805C
:2040A700EDF0EFA3F0809090000D123D8590000A123D8590137DE0FCA3E0FDA3E0FF8C829F
:2040C7008D838FF0E41241118C828D838FF02290137DE0FCA3E0FDA3E0FF8C828D838FF0A8
:2040E700EE12411190137D74012CF0E43DA3F0EFA3F0901380E02401F0A3E03400F07F0042
:0A4107008E828F83123D8502403E38
:1B41110020F71130F6138883A88220F509F6A8837583002280FEF280F5F022AD
:20412C00C00E85810EE50E24FDF8868318868218E493A324DB600C2425600512421A80F033
:20414C00024232D2D5E493A3C083C082B4731486F018868318868218124E6A6054A3124218
:20416C001A80F5B4630818E61812421A8043B46417E630E74618E6F42401F608E6F43400A9
:20418C00F6742D12421A8033B4782D868318868218E412420BE58312420AE58312420BE50C
:2041AC008212420AE58212420B30D505743012421AD082D08302413CB475F6E6FA18E6F917
:2041CC00187C107D271241F5FF7CE87D031241F5C4F5837C647D001241F54283E975F00A1A
:2041EC0084C445F0F582EF80A97B000BC3E99CF9EA9DFA50F61BE92CF9EA3DFAEB22C454AA
:20420C000F700320D51FC2D52490D43440D4C083C082C0F0F582E8C0E0123D85D0E0F8D015
:09422C00F0D082D08322D00E22D2
:204235009013837401F07400A3F0904E8AE493FE740193FF1EBEFF011FEE2401FEEF3400C4
:20425500FF900001EEF0EFA3F0901383E0FEA3E0FF8E828F83A3A3E4F0A3F022AF83E58249
:20427500901385F0EFA3F0901383E0F5F0A3E045F07003124235901385E0FEA3E0FF4E60BA
:204295000E74022EFCE43FFDC3EC9EED9F50049000002290138574022EF0E43FA3F0901347
:2042B50085E0FEA3E0FFC3EE9404EF940050099013857404F0E4A3F0901383E0FEA3E0FF52
:2042D500901387EEF0EFA3F09013897483F07413A3F0901387E0FEA3E0FF4E70030243D6AC
:2042F5008E828F83E0FCA3E0FD8C028D038E008F01EAC398FAEB99FB8A008B01901385E013
:20431500F50CA3E0F50DC3E8950CE9950D50030243B37404250CF8E4350DF9C3EA98EB9957
:20433500404C8E028F03E50C2AFAE50D3BFB8A828B83ECF0EDA3F074022AFCE43BFD8E823F
:204355008F83A3A3E0F8A3E0F98C828D83E8F0E9A3F0901389E0FCA3E0FD8C828D83EAF0AA
:20437500EBA3F08E828F83EAF0EBA3F0801C901389E0FCA3E0FD8E828F83A3A3E0FAA3E047
:20439500FB8C828D83EAF0EBA3F0901387E0FCA3E0FD74022CFCE43DFD8C828D832274029F
:2043B5002EFEE43FFF901389EEF0EFA3F08E828F83E0FEA3E0FF901387EEF0EFA3F00242BE
:0543D500E7900000224A
:2043DA00AA83AB828BF090138BE0A4F8A9F08AF0E0A429F98BF0A3E0A429F58388822222FA
:20303B007800E84400600A790175A000E4F309D8FC78C3E84413600C7914900001E4F0A3A9
:04305B00D8FCD9FACA
:2043FA00C00E85810E7E008E83123D85D00E22AFF0AE83E58290138EF0EEA3F0EFA3F09073
:20441A00138EE0FDA3E0FEA3E0FF90138DE0FC9013A2E4F0A3F0A3F09013A5EDF0EEA3F010
:20443A00EFA3F09013A8ECF09043FA024551C00EE581F50E24FBFF9013A2E4F0A3F0A3F0C0
:20445A00E50E24FBF89013A5E6F008E6A3F008E6A3F09013A8EFF09043FA124551D00E2279
:20447A00E58290139EF0E0FF901394E0C0E0A3E0C0E0A3E0C0E0124495800D901392E0C061
:20449A00E0A3E0C0E08F822215811581158190139CE02401F0A3E03400F022E58290139F64
:2044BA00F0E02430FF24C6500D74072FFF901391E060034307208F8202447AE5829013A073
:2044DA00F0E0FFC4540FF582C0071244B5D00753070F8F820244B5E5829013A1F090139762
:2044FA00E0FCA3E0FDA3E0FEA3E0FF90139BE0FB7519209013A1E0F98B00E828F8EF235466
:20451A000148FBEC2CFCED33FDEE33FEEF33FFC3EB994007EBC399FB430401E51914FA8A1E
:20453A001970D5901397ECF0EDA3F0EEA3F0EFA3F090139BEBF022AF83E5829013A9F0EF6B
:20455A00A3F09013A9E0FEA3E0FF901392EEF0EFA3F09013A2E0FDA3E0FEA3E0FF90139411
:20457A00EDF0EEA3F0EFA3F090139CE4F0A3F09013A5E0FDA3E0FEA3E0FF8D828E838FF0D4
:20459A00124E6AFC9013A574012DF0E43EA3F0EFA3F0EC7003024E46BC25028003024E3E41
:2045BA009013ABE4F09013ACF09013ADF09013AEF09013AFF09013B0F09013B1F09013B2E1
:2045DA00F09013B4F09013B5F0A3F09013B714F0A3F09013A5E0FDA3E0FEA3E0FF8D828EF9
:2045FA00838FF0124E6AFBA3AD82AE839013A5EDF0EEA3F0EFA3F09013BBEBF0BB25088B03
:20461A008212447A024589BB300050030246EAEB24C650030246EA9013B7E0F50FA3E0F5DE
:20463A001074FFB50F63B51060C005C006C0079013B5E0FAA3E0FF90138BEAF0EFA3F09071
:20465A00000AC005C0031243DAAE82AF83D003D0058B027D00EA2EFEED3FFFEE24D0FEEF5B
:20467A0034FFFF9013B5EEF0EFA3F0D007D006D0059013B5E0F5F0A3E045F060030245F73E
:20469A009013AC7401F00245F7C005C006C00790138BE50FF0E510A3F090000AC006C005FD
:2046BA00C0031243DAAA82AF83D003D005D0067E00EB2AFAEE3FFFEA24D0FAEF34FFFF90D0
:2046DA0013B7EAF0EFA3F0D007D006D0050245F79013BBE0FBBB2E2FC005C006C007901394
:2046FA00B7E0FAA3E0FFBAFF05BFFF028009D007D006D0050245F7D007D006D0059013B7EA
:20471A00E4F0A3F00245F7BB61004014EB2485400F9013BB74DF5BF09013917401F080056D
:20473A00901391E4F09013BBE0FBBB20028075BB2B028067BB2D028059BB4202806FBB43CE
:20475A0002807CBB44030249E1BB4603024A07BB48030245F7BB49030249E1BB4A030245F6
:20477A00F7BB4C028050BB4F030249EFBB500302494FBB53028077BB54030245F7BB5503F6
:20479A000249F7BB58030249FFBB5A030245F7024A0F9013AB7401F00245F79013AD7401F6
:2047BA00F00245F79013AE7401F00245F79013B07401F00245F79013B17401F00245F79040
:2047DA0013B0E0600E9013A8E014F9F09013BBE7F0800F9013A8E024FEFFF08F019013BB98
:2047FA00E7F09013BBE0F58212447A024A1E9013A8E024FDFFF08F01870509870609870755
:20481A001919901397EDF0EEA3F0EFA3F08D828E838FF0124E5285820F8583109013B7E079
:20483A00FAA3E0FDBAFF0DBDFF0A9013B7E50FF0E510A3F09013ABE0704B9013B5E0FAA3D4
:20485A00E0FDC3E50F9AE5109D503A9013B5EAC3950FF0ED9510A3F09013B5E0FAA3E0FD84
:20487A008A068D071ABAFF011DEE4F6010758220C005C00212447AD002D00580E39013B58C
:20489A00EAF0EDA3F09013B7E0F512A3E0F513901397E0FAA3E0FDA3E0FF8A828D838FF027
:2048BA00124E6AF511603CC3E4951274808513F063F08095F0502C151274FFB51202151349
:2048DA0085118212447A901397E0FAA3E0FDA3E0FF0ABA00010D901397EAF0EDA3F0EFA3C8
:2048FA00F080AC9013ABE07003024A1E9013B5E0FEA3E0FFC3E50F9EE5109F4003024A1E29
:20491A009013B5EEC3950FF0EF9510A3F09013B5E0FEA3E0FF8E028F051EBEFF011FEA4DAB
:20493A007003024A16758220C007C00612447AD006D00780E09013A8E024FDFDF08D0187B9
:20495A00140987150987161919901397E514F0E515A3F0E516A3F0901399E0FDBD800040D8
:20497A00089013BB7443F08020BD600040089013BB7450F08013BD400040089013BB744906
:20499A00F080069013BB7458F09013BBE0FDF582C00512447A75823A12447A7582301244A8
:2049BA007A75827812447AD005BD4902800EBD50028009901398E0F5821244D5901397E04A
:2049DA00F5821244D5803D9013AF7401F09013B4740AF0802F9013B47408F080279013B472
:2049FA00740AF0801F9013B47410F080179013B27401F0800F8B8212447A80089013B5EE3A
:204A1A00F0EFA3F09013B2E060719013A8E024FCFFF08F01870309870509870609870719D5
:204A3A001919901397EBF0EDA3F0EEA3F0EFA3F09013977419F07452A3F07480A3F0901358
:204A5A0097E0F514A3E0F515A3E0F51674012514FAE43515FBAF16901397EAF0EBA3F0EF8A
:204A7A00A3F08514828515838516F0124E6AFF70030245898F8212447A80C39013B4E070EF
:204A9A00030245899013B0E060479013A8E014F9F087077E007D007B00901397EFF0EEA379
:204ABA00F0EDA3F0EBA3F09013AFE06003024B61901397E0FBA3E0A3E0A3E07D007E007F93
:204ADA0000901397EBF0EDA3F0EEA3F0EFA3F080769013B1E060289013A8E024FCFFF08FA9
:204AFA00018703098705098706098707191919901397EBF0EDA3F0EEA3F0EFA3F080489014
:204B1A0013A8E024FEFFF08F01870609870719EF3395E0FDFB901397EEF0EFA3F0EDA3F059
:204B3A00EBA3F09013AFE0701E901397E0FBA3E0FDA3E0A3E07E007F00901397EBF0EDA3E0
:204B5A00F0EEA3F0EFA3F09013AFE06041901397E0FBA3E0FDA3E0FEA3E0FF30E72B9013F8
:204B7A0097E0FBA3E0FDA3E0FEA3E0FFC3E49BFBE49DFDE49EFEE49FFF901397EBF0EDA3C4
:204B9A00F0EEA3F0EFA3F080059013AFE4F09013B37401F09013B4E0F5127517C175181377
:204BBA00E4F50FF51090139BE4F08512821244F19013B3E0702690139BE0C4F514851782A7
:204BDA00851883E0FFE5144207851782851883EFF0151774FFB517021518800C90139BE019
:204BFA00FF851782851883F0050FE4B50F0205109013B3E0B40100E433F0901397E0FAA3F2
:204C1A00E0FBA3E0FEA3E0FFEA4B4E4F70979013C2E517F0E518A3F09013B9E50FF0E510AD
:204C3A00A3F09013B5E0F5F0A3E045F070099013B57401F0E4A3F09013ACE0FFE0704790F0
:204C5A0013ABE07041850F178510189013B5E0FAA3E0FBC007AF170F8F067F00C3EE9AEFF9
:204C7A009BD0075019758220C007C003C00212447AD002D003D0071ABAFF011B80D59013A9
:204C9A00B5EAF0EBA3F09013AFE0602075822DC00712447AD0079013B5E024FFFDA3E0349A
:204CBA00FFFE9013B5EDF0EEA3F080569013B9E0F5F0A3E045F0604A9013ADE06020758227
:204CDA002BC00712447AD0079013B5E024FFFDA3E034FFFE9013B5EDF0EEA3F08024901318
:204CFA00AEE0601E758220C00712447AD0079013B5E024FFFDA3E034FFFE9013B5EDF0EEDA
:204D1A00A3F09013ABE070489013B9E0F517A3E0F5189013B5E0FAA3E0FBC0078A068B078F
:204D3A001ABAFF011BC3E5179EE5189FD0075053EF60067D307E0080047D207E008D82C009
:204D5A0007C003C00212447AD002D003D00780CA9013B5E0FEA3E0FF9013B9E0F517A3E094
:204D7A00F518C3E5179EE5189F500F9013B5EEC39517F0EF9518A3F080119013B5E4F0A380
:204D9A00F080089013B5EAF0EBA3F09013C2E0FEA3E0FF9013B9E0F517A3E0F518AA17ADC6
:204DBA0018151774FFB517021518EA4D60459013B3E0B40100E433F09013B3E070140EBED3
:204DDA0000010F8E828F83E0C4540FFD90139BF0800E8E828F83E0FD53050F90139BEDF046
:204DFA0090139BE0F582C007C0061244B5D006D00780AA9013ABE070030245899013B5E0EC
:204E1A00FEA3E0FF8E038F051EBEFF011FEB4D7003024589758220C007C00612447AD00613
:184E3A00D00780E08C8212447A02458990139CE0FEA3E08E82F5832231
:0B5219003C4E4F20464C4F41543E00DD
:184E5200AA82AB83124E6A6003A380F8C3E5829AF582E5839BF58322CE
:0D300600758119124E86E5826003023003C9
:1C4E6A0020F71430F6148883A88220F507E6A88375830022E280F7E49322E02257
:044E8600758200220F
:00000001FF
