:0330000002300695
:03305F0002300339
:033003000230C1D7
:10306200C2D8906000E0F5F0A3E045F0701DAFFA21
:10307200FEACEAFD906004EE4CF0EF4DA3F075DA81
:10308200119060007401F0E4A3F022AFFA7E00AC6C
:10309200EA7D00EC4206ED4207906006EEF0EFA3F7
:1030A200F0906004E0FCA3E0FD906002EEC39CF0AF
:1030B200EF9DA3F075DA21906000E4F0A3F0227591
:1030C200D90375F90075E90075DA21906000E4F022
:0930D200A3F075A8C0D2DE80FE57
:0830DF000000000000000000E9
:06303500E478FFF6D8FD6F
:103013007908E94400601B7A019030DF780075A0DD
:1030230060E493F2A308B8000205A0D9F4DAF275BC
:02303300A0FFFC
:10303B007800E84400600A790075A060E4F309D8D1
:10304B00FC7800E84400600C7900906000E4F0A389
:04305B00D8FCD9FACA
:0D3006007581071230DBE5826003023003A4
:0430DB0075820022D8
:00000001FF
