:0330000002300695
:03305F0002300339
:0330030002306236
:2030620043D940E4F5E9F5F974F9C0E07431C0E01230D01581158143D90275EEFF75FEFFC0
:2030820075DE4CD2DE12308C80FB7E007F041EBEFF011FEE4F70F722C2AF75EE0085F9FE84
:2030A200D2AF22AF83E582900001F0EFA3F03099FD900001E0FEA3E08E99C29990000022E3
:0E30C20010980280FBAE997F008E828F8322D1
:0631F900526573657400CD
:06303500E478FFF6D8FD6F
:203013007900E94400601B7A009031FF780375A000E493F2A308B8000205A0D9F4DAF27531
:02303300A0FFFC
:2030D000C008858108E50824FDF8868318868218E493A324DB600C242560051231BE80F01F
:2030F0000231D6D2D5E493A3C083C082B4731486F0188683188682181231D96054A31231B1
:20311000BE80F5B4630818E6181231BE8043B46417E630E74618E6F42401F608E6F43400DE
:20313000F6742D1231BE8033B4782D868318868218E41231AFE5831231AEE5831231AFE52C
:20315000821231AEE5821231AF30D50574301231BED082D0830230E0B475F6E6FA18E6F937
:20317000187C107D27123199FF7CE87D03123199C4F5837C647D001231994283E975F00ACA
:2031900084C445F0F582EF80A97B000BC3E99CF9EA9DFA50F61BE92CF9EA3DFAEB22C45416
:2031B0000F700320D51FC2D52490D43440D4C083C082C0F0F582E8C0E01230A5D0E0F8D06F
:0931D000F0D082D08322D0082245
:20303B007800E84400600A790175A000E4F309D8FC7802E84400600C7901900001E4F0A390
:04305B00D8FCD9FACA
:0D3006007581081231F5E582600302300388
:1C31D90020F71430F6148883A88220F507E6A88375830022E280F7E49322E02205
:0431F50075820022BD
:00000001FF
