:20309B00AF82AE83ADF0FC900001EFF0EEA3F0EDA3F0ECA3F0900001E0F518A3E0F519A378
:2030BB00E0F51AA3E0F51B7A007B008A00EBF93395E0FEFFC3E89518E99519EE951AEF955B
:2030DB001B50147EFB7F041EBEFF011FEE4F70F70ABA00D70B80D42290F200E020E7F9221B
:2030FB0090000FE4F5F012309B90F0007430F0900004E4F5F012309B90F0007430F090007E
:20311B0001E4F5F012309B90F0007430F01230F390F0007438F01230F390F0007408F01255
:20313B0030F390F000740EF01230F390F0007406F01230F390F0007401F02290F00074010F
:20315B00F022E582900005F0E090F000F022E582900007F0E0FF90009EF0900006E0FE90F5
:20317B00009FF0900008E4F0A3F0EF700E8E05FF90000874802DF0E43FA3F0900007E0FFD2
:20319B00BF010F8E057F0090000874C02DF0E43FA3F0900007E0FFBF020F8E057F009000AC
:2031BB000874902DF0E43FA3F0900007E0FFBF030D7F0090000874D02EF0E43FA3F0900011
:2031DB0008E0FEA3E08E8202315DE58290000AF0E090F100F01230F390000AE4F5F00230BF
:2031FB009BAFF0AE83E58290000BF0EEA3F0EFA3F090009FE090009DF090000BE0FDA3E02D
:20321B00FEA3E0FF8D828E838FF0124DE3FC70030232B6BC0A030232B6BC0D030232B60D63
:20323B00BD00010E90000BEDF0EEA3F0EFA3F08C82C007C006C0051231E5D005D006D00722
:20325B0090009DE004F0E0FCBC10B990009EE004F090009DE4F090009EE0FCBC041F900075
:20327B0006E4F0758200C007C006C005123169D005D006D00790009EE4F002321F90009E5F
:20329B00E0FC900006E4F08C82C007C006C005123169D005D006D00702321F90000BEDF074
:0732BB00EEA3F0EFA3F022E7
:0B533F00000000000000000000000063
:0430000002303F3229
:03300B00023C473D
:0330980002300EF5
:03300E0002342A5F
:2032C20090000075F00012460A90000075F00022123C04AE828E057F00BD0D05BF000280DA
:2032E200EF90000EEEF08D828F83123BE790000EE0FFBF3002800DBF31028008BF32028024
:2033020003BF330990000E75F0000244EA90FFFF2290001075F00012460A90001075F0005E
:203322000244EA123C04AE828E057F00BD0D05BF000280EF900013EEF08D828F83123BE7F2
:20334200123C04AE828E057F00BD0D05BF000280EF900014EEF08D828F83123BE79000145D
:20336200E0FFBF30030233D1BF31028062BF3202805DBF33028058BF34028053BF350280C6
:203382004EBF36028049BF37028044BF3802803FBF3902803ABF61028035BF62028030BF8C
:2033A2006302802BBF64028026BF65028021BF6602801CBF41028017BF42028012BF430274
:2033C200800DBF44028008BF45028003BF4655900013E0FFBF38028030900013E0FFBF3949
:2033E200028026900013E0FFBF6302801C900013E0FFBF64028012900013E0FFBF430280A2
:2034020008900013E0FFBF441B90004DE4F0A3F0A3F09000507410F0E4A3F090001375F058
:20342200000242BD90FFFF221230FB1230F3900006E4F07582011231691230F3904E6F7562
:20344200F0801231FC1230F3900006E4F07582001231691230F3904EA075F0801231FC1290
:2034620030F31231561230F3900006E4F07582011231691230F3904E6F75F0801231FC1293
:2034820030F31230F374E9C0E0744EC0E012470F158115817417C0E0744FC0E012470F15D4
:2034A200811581742CC0E0744FC0E012470F158115817440C0E0744FC0E012470F158115F2
:2034C200817450C0E0744FC0E012470F158115817468C0E0744FC0E012470F158115817427
:2034E20080C0E0744FC0E012470F158115817496C0E0744FC0E012470F1581158174AFC02F
:20350200E0744FC0E012470F1581158174C6C0E0744FC0E012470F1581158174D9C0E074A0
:203522004FC0E012470F15811581740EC0E07450C0E012470F1581158174D9C0E0744FC07C
:20354200E012470F15811581123C04AE8290009CEEF0E0FF7E008F828E83123BE790009C8A
:20356200E0FFBF0A0280B490009CE0FFBF0D0280AA90009CE0FFBF4102802DBF4303023770
:20358200DABF4703023682BF4D03023B4EBF5003023925BF5203023AADBF5303023B1EBF54
:2035A200570302381C023BD57421C0E07450C0E012470F158115817454C0E07450C0E0123C
:2035C200470F158115817421C0E07450C0E012470F158115817469C0E07450C0E012470FF1
:2035E20015811581123325E5828583F0900016F0E5F0A3F0900016E0FEA3E0FFBEFF47BF0D
:20360200FF44C007C006C006C0077491C0E07450C0E012470FE58124FCF581D006D007C071
:2036220006C00774C6C0E07450C0E012470FE58124FCF581123325E5828583F0900016F0BA
:20364200E5F0A3F080AE900005E4F5F0C007C00612309B1230F3D0068E058D82C006123154
:203662005D1230F3D006D007C006C00774DEC0E07450C0E012470FE58124FCF58102351D6E
:203682007421C0E07450C0E012470F158115817454C0E07450C0E012470F15811581742106
:2036A200C0E07450C0E012470F158115817407C0E07451C0E012470F158115817424C0E024
:2036C2007451C0E012470F158115811232D2E5828583F0900018F0E5F0A3F0900018E0FEF4
:2036E200A3E0FFBEFF33BFFF307436C0E07451C0E012470F158115817449C0E07451C0E063
:2037020012470F158115811232D2E5828583F0900018F0E5F0A3F080C2C006C007745DC03E
:20372200E07451C0E012470FE58124FCF5817478C0E07451C0E012470F1581158112331301
:20374200E5828583F090001AF0E5F0A3F090001AE0FEA3E0FFC3740F9E74808FF063F080D2
:2037620095F04004EF30E730748DC0E07451C0E012470F1581158174A3C0E07451C0E01280
:20378200470F15811581123313E5828583F090001AF0E5F0A3F080B5C007C006C006C0079D
:2037A20074BAC0E07451C0E012470FE58124FCF581900005E4F5F012309B1230F3D006D05A
:2037C20007900018E0FCA3E0900006EEF08C821231691230F302351D7421C0E07450C0E089
:2037E20012470F1581158174D8C0E07451C0E012470F158115817421C0E07450C0E012475C
:203802000F158115811230F3123156900005E4F5F012309B1230F302351D7421C0E07450E0
:20382200C0E012470F1581158174F1C0E07451C0E012470F158115817421C0E07450C0E0BB
:2038420012470F158115817412C0E07452C0E012470F15811581123325AE82AF8390009BBB
:20386200EEF090009BE0FFBFFF4A90009BE0FF3395E0FEC007C0067491C0E07450C0E012FE
:20388200470FE58124FCF58190009BE0FF3395E0FEC007C00674C6C0E07450C0E012470FF1
:2038A200E58124FCF581123325AE82AF8390009BEEF080AE900005E4F5F012309B90009BA1
:2038C200E0F58212315D90009BE0FF3395E0FEC007C00674DEC0E07450C0E012470FE5818E
:2038E20024FCF5817454C0E07452C0E012470F15811581123C04AE82900095EEF0E0FF7EEC
:20390200008F828E83123BE7900005E4F5F012309B1230F3900095E0F5821231E51230F306
:2039220002351D7421C0E07450C0E012470F158115817421C0E07450C0E012470F15811558
:2039420081746BC0E07452C0E012470F158115817482C0E07452C0E012470F158115817467
:2039620024C0E07451C0E012470F158115811232D2AE82AF83900096EEF0900096E0FFBF48
:20398200FF2C7436C0E07451C0E012470F158115817449C0E07451C0E012470F1581158161
:2039A2001232D2AE82AF83900096EEF080CC900096E0FF3395E0FEC007C006745DC0E07420
:2039C20051C0E012470FE58124FCF5817478C0E07451C0E012470F15811581123313AE8283
:2039E200AF83900097EEF0900097E0FFC3748F8FF063F08095F04008900097E0FF30E72C5A
:203A0200748DC0E07451C0E012470F1581158174A3C0E07451C0E012470F15811581123315
:203A220013AE82AF83900097EEF080BB900097E0FF3395E0FEC007C00674BAC0E07451C043
:203A4200E012470FE58124FCF5811230F3900096E0FF900097E0900006F08F82123169128A
:203A620030F374B6C0E07452C0E012470F158115811232C2AD82AE83AFF0900098EDF0EE65
:203A8200A3F0EFA3F0900005E4F5F012309B1230F3900098E0FDA3E0FEA3E0FF8D828E8377
:203AA2008FF01231FC1230F302351D7421C0E07450C0E012470F1581158174E6C0E07452D0
:203AC200C0E012470F158115817421C0E07450C0E012470F158115819000A0E4F0A3F0A349
:203AE200F0A3F09000A4F0A3F0A3F0A3F09000A8F0A3F0A3F0A3F09000ACF0A3F0A3F0A38E
:203B0200F09000B0F0A3F0A3F0A3F09000B4F0A3F0A3F0A3F09000B8F002351D74FEC0E03F
:203B22007452C0E012470F158115817414C0E07453C0E012470F1581158174FEC0E074528E
:203B4200C0E012470F1581158102351D74E9C0E0744EC0E012470F158115817417C0E07449
:203B62004FC0E012470F15811581742CC0E0744FC0E012470F158115817440C0E0744FC0B2
:203B8200E012470F158115817450C0E0744FC0E012470F158115817468C0E0744FC0E01263
:203BA200470F158115817480C0E0744FC0E012470F158115817496C0E0744FC0E012470F81
:203BC2001581158174AFC0E0744FC0E012470F158115817429C0E07453C0E012470F15815B
:203BE200158102351DAF83E58290001CF0EFA3F03099FD90001CE0FEA3E08E99C29990003D
:203C0200002220981090009CE0FFBF5403123C22123C9A80EDC298AE997F008E828F83226E
:204E6F0057656C636F6D6520746F202043752020426F756C6465722E4D79206E616D65207A
:204E8F00697320486172736820526174686F7265004142434445464748494B4C4D4E4F50DE
:204EAF00515245535455565758595A3132333435363738393031323334353637383961629A
:204ECF00636465666768696A6B6C6D6E6F707172737475767778797A2E000A0D54686520E1
:204EEF00666F6C6C6F77696E6720636F6D6D616E64732077696C6C20626520706572666F65
:204F0F00726D6564200A0D000A0D412D474F20544F2041444452455353200A0D000A0D430E
:204F2F002D434C4541522053435245454E200A0D000A0D472D474F20544F205859200A0DCB
:204F4F00000A0D572D57524954452041204348415241435445520A0D000A0D502D50524978
:204F6F004E5420412053454E54454E4345200A0D000A0D532D53544F5020544845205449D8
:204F8F004D4552200A0D000A0D522D52455354415254205448452054494D4552200A0D0053
:204FAF000A0D582D5245534554205448452054494D4552200A0D000A0D20456E7465722095
:204FCF00746865204B65790A0D000A0D7E7E7E7E7E7E7E7E7E7E7E7E7E7E7E7E7E7E7E7E32
:204FEF007E7E7E7E7E7E7E7E7E7E7E7E7E7E7E7E7E7E7E7E7E7E7E7E7E7E7E200A0D000A17
:20500F000D456E74657220546865204B65790A0D20000A0D2A2A2A2A2A2A2A2A2A2A2A2AA6
:20502F002A2A2A2A2A2A2A2A2A2A2A2A2A2A2A2A2A2A2A2A2A2A2A2A2A2A2A2A2A2A2A2A21
:20504F002A200A0D000A0D0909474F20544F20414444524553530A0D20000A0D456E74655E
:20506F0072207468652032204469676974204C434420444452414D20416464726573730A80
:20508F000D000A0D5468652032204469676974204C434420444452414D204164647265736B
:2050AF007320456E746572656420697320494E56414C49440A0D000A0D456E7465722061B7
:2050CF00204E657720416464726573730A0D000A0D5468652032204469676974204C4344EC
:2050EF0020444452414D20416464726573732069732025782E0A0D000A0D456E7465722000
:20510F0074686520726F7720616E6420636F6C756D6E0A0D000A0D456E7465722074686539
:20512F0020726F770A0D000A0D526F7720697320494E56414C49440A0D000A0D456E7465A5
:20514F00722061204E657720526F770A0D000A0D2054686520726F7720656E7465726564BD
:20516F002069732025640A0D000A0D456E7465722074686520636F6C756D6E0A0D000A0D12
:20518F00436F6C756D6E20697320494E56414C49440A0D000A0D456E7465722061204E65EF
:2051AF007720436F6C756D6E0A0D000A0D2054686520636F6C756D6E20656E7465726564B7
:2051CF002069732025640A0D000A0D095C7420434C454152205448452053435245454E0AA2
:2051EF000D000A0D090957524954452054484520434841524143544552204F4E204C434481
:20520F000A0D000A0D456E746572207468652032204469676974204C434420444452414D14
:20522F00204164647265737320666F722077726974696E6720746865206368617261637497
:20524F0065720A0D000A0D20454E5445522041204348415241435445520A0D000A0D09094E
:20526F005052494E542054484520535452494E470A0D000A0D456E7465722074686520727B
:20528F006F7720616E6420636F6C756D6E20666F722077726974696E672074686520737425
:2052AF0072696E670A0D000A0D20454E5445522054484520535452494E47205748494348D8
:2052CF00204E4545445320544F204245205052494E5445440A0D000A0D09095245535441D1
:2052EF005254205448452054494D45520A0D000A0D52455354415254205448452054494DF9
:20530F0045520A0D000A0D090953544F50205448452054494D45520A0D000A0D494E564163
:0A532F004C4F44204B45596E0D0011
:203C2200438901758C4B758AFDD2A9D2AFD28C90009CE0FFBF5303C28C2290009CE0FFBFB9
:203C42005202D28C22C0E0C082C083C007C006C005C004C0D075D000C2AFB2929000A0E0B9
:203C6200FCA3E0FDA3E0FEA3E0FF9000A074052CF0E43DA3F0E43EA3F0E43FA3F0758C4B93
:203C8200758AFDC28DD2AFD0D0D004D005D006D007D083D082D0E0329000A0E0FCA3E0FD4D
:203CA200A3E0FEA3E0FF9000377464F0E4A3F0A3F0A3F08C828D838EF0EF124089AC82AD92
:203CC20083AEF0FF9000A4ECF0EDA3F0EEA3F0EFA3F09000A0E0FCA3E0FDA3E0FEA3E0FFA0
:203CE2009000407464F0E4A3F0A3F0A3F08C828D838EF0EF1241C9AC82AD83AEF0FF90005B
:203D0200A8ECF0EDA3F0EEA3F0EFA3F09000A8E0FCA3E0FDA3E0FEA3E0FF900037743CF09C
:203D2200E4A3F0A3F0A3F08C828D838EF0EF124089AC82AD83AEF0FF9000ACECF0EDA3F0EB
:203D4200EEA3F0EFA3F09000A8E0FCA3E0FDA3E0FEA3E0FF900040743CF0E4A3F0A3F0A3AA
:203D6200F08C828D838EF0EF1241C9AC82AD83AEF0FF9000B0ECF0EDA3F0EEA3F0EFA3F010
:203D82009000ACE0FCA3E0FDA3E0FEA3E0FFC3743B9CE49DE49EE49F50219000B0E0FCA3C2
:203DA200E0FDA3E0FEA3E0FF9000B074012CF0E43DA3F0E43EA3F0E43FA3F09000B0E0FC15
:203DC200A3E0FDA3E0FEA3E0FF900037743CF0E4A3F0A3F0A3F08C828D838EF0EF124089F4
:203DE200AC82AD83AEF0FF9000B4ECF0EDA3F0EEA3F0EFA3F09000B0E0FCA3E0FDA3E0FE06
:203E0200A3E0FF900040743CF0E4A3F0A3F0A3F08C828D838EF0EF1241C9AC829000B8EC08
:203E2200F0E0FF7E009000B0E0FAA3E0FBA3E0A3E09000ACE0F8A3E0F9A3E0A3E0880889E6
:203E4200099000A4E0F8A3E0F9A3E0A3E090001EEAF0EBA3F0900020E508F0E509A3F09025
:203E62000022E8F0E9A3F08F828E83023E70AF83E582900024F0EFA3F090009CE0FFBF531C
:203E820001229000267430F0900027743AF09000287430F0900029F090002A743AF0900081
:203EA2002B7430F090002CF090002D742EF090002E7430F090002FE4F0900024E0FEA3E04C
:203EC200FF900082740AF0E4A3F08E828F83124C81AE8274302E900026F0900027743AF0EC
:203EE20090001EE0FEA3E0FF900030740AF0E4A3F08E828F83C007C006123FFCAC82D0060D
:203F0200D00774302C900028F0900082740AF0E4A3F08E828F83124C81AE8274302E9000C6
:203F220029F090002A743AF0900020E0FEA3E0FF900030740AF0E4A3F08E828F83C007C0B0
:203F420006123FFCAC82D006D00774302C90002BF0900082740AF0E4A3F08E828F83124C3F
:203F620081AE8274302E90002CF090002D742EF0900022E0FEA3E0FF900030740AF0E4A3FA
:203F8200F08E828F83123FFCAE8274302E90002EF090002FE4F09000067406F07582001274
:203FA20031691230F390002675F0001231FC1230F390009CE0FFBF571290009BE0F58212DA
:203FC200315D900095E0F5821231E590009CE0FFBF5026900096E0FF900097E0900006F0DB
:1A3FE2008F82123169900098E0FDA3E0FEA3E0FF8D828E838FF00231FC2210
:19534A00000000000000000000000000000000000000000000000000004A
:203FFC00AF83E582900032F0EFA3F0900034E4F0A3F0900030E0FEA3E0FF7D10900032E05E
:20401C00FBA3E0FC900036235401F0EB2BFBEC33FC900032EBF0ECA3F0900034E0FBA3E072
:20403C00FCEB2BFBEC33FC900034EBF0ECA3F0900036E06008900034E043E001F090003494
:20405C00E0FBA3E0FCC3EB9EEC9F4013900034EBC39EF0EC9FA3F0900032E043E001F0DD0F
:0D407C009B900032E0FEA3E08E82F58322CF
:20408900AF82AE83ADF0FC90003BEFF0EEA3F0EDA3F0ECA3F090003FE4F090003BE0FCA305
:2040A900E0FDA3E0FEA3E0FF7B00900037E0F518A3E0F519A3E0F51AA3E0F51B235401FAC0
:2040C9007074C003E5182518F8E51933F9E51A33FAE51B33FB900037E8F0E9A3F0EAA3F0E2
:2040E900EBA3F0900037E0F518A3E0F519A3E0F51AA3E0F51BC3EC9518ED9519EE951AEF4C
:20410900951BD0035027E51BC313F51BE51A13F51AE51913F519E51813F518900037F0E5BD
:2041290019A3F0E51AA3F0E51BA3F080090B90003FEBF00240B390003FE0FF90003BE0FB1E
:20414900A3E0FCA3E0FDA3E0FE900037E0F518A3E0F519A3E0F51AA3E0F51BC3EB9518EC25
:204169009519ED951AEE951B401790003BEBC39518F0EC9519A3F0ED951AA3F0EE951BA344
:20418900F0900037E0FBA3E0FCA3E0FDA3E0C313FEED13FDEC13FCEB13900037F0ECA3F002
:2041A900EDA3F0EEA3F08F061FEE708F90003BE0FCA3E0FDA3E0FEA3E08C828D838EF0226B
:2041C900AF82AE83ADF0FC900044EFF0EEA3F0EDA3F0ECA3F0900048E4F0A3F0A3F0A3F043
:2041E900900040E0FCA3E0FDA3E0FEA3E0FF7B20C003900044E0F8A3E0F9A3E0FAA3E0FB06
:2042090090004C235401F0E828F8E933F9EA33FAEB33FB900044E8F0E9A3F0EAA3F0EBA3D1
:20422900F0900048E0F8A3E0F9A3E0FAA3E0FBE828F8E933F9EA33FAEB33FB900048E8F061
:20424900E9A3F0EAA3F0EBA3F0D00390004CE06008900048E043E001F0900048E0F518A3B3
:20426900E0F519A3E0F51AA3E0F51BC3E5189CE5199DE51A9EE51B9F401F900048E518C3F8
:204289009CF0E5199DA3F0E51A9EA3F0E51B9FA3F0900044E043E001F01BEB60030241F98C
:1442A900900044E0FCA3E0FDA3E0FEA3E08C828D838EF0220F
:2042BD00AFF0AE83E582900052F0EEA3F0EFA3F0900052E0FDA3E0FEA3E0FF8D828E838F64
:2042DD00F0124DE3FCBC20028003BC09070DBD00EA0E80E7900055EDF0EEA3F0EFA3F08DEB
:2042FD00828E838FF0124DE3FCBC2D1490005B7401F09000552DF0E43EA3F0EFA3F0800546
:20431D0090005BE4F090005BE06079900055E0FDA3E0FEA3E0FF8D828E838FF0124DE3FD7A
:20433D00BD20028022BD0902801D900055E0FDA3E0FEA3E0FF8D828E838FF0124DE3FFBF16
:20435D002D028003BF2B3D90004DE0FDA3E0FEA3E0FF90004DE0F5F0A3E045F0601F900041
:20437D0052E0FAA3E0FBA3E0FC8D828E838FF0EA1246F4A3EB1246F4A3EC1246F4900000DD
:20439D00E4F5F022900055E0FDA3E0FEA3E0FF900050E0FBA3E0FC90006D7458F07400A346
:2043BD00F0E4A3F0900070EBF0ECA3F08D828E838FF012489DAC82AD83AEF0FF900058E0C6
:2043DD00F50AA3E0F50BA3E0F50C900055E0F8A3E0FAA3E0FBC00AC00BC00C88828A838BFF
:2043FD00F0123011158115811581704390004DE0F50DA3E0F50EA3E0F50F90004DE0F5F07A
:20441D00A3E045F06022900052E0F8A3E0FAA3E0FB850D82850E83850FF0E81246F4A3EA21
:20443D001246F4A3EB1246F4900000E4F5F02290004DE0F9A3E0FAA3E0FB90004DE0F5F06B
:20445D00A3E045F0601789828A838BF0E50A1246F4A3E50B1246F4A3E50C1246F490005B98
:20447D00E07021C374FF9C74FF9D74FF9E747F9F50129000937422F0E4A3F090FFFF75F0B4
:20449D00FF747F2290005BE0601EC3E49CE49DE49E74809F50129000937422F0E4A3F090B7
:2044BD000000E4F5F074802290005BE0600FC3E49CF8E49DF9E49EFAE49FFB80088C008D76
:0D44DD00018E028F03888289838AF0EB2212
:06306E00E478FFF6D8FD36
:2044EA00AFF0AE83E58290005CF0EEA3F0EFA3F090005FE4F0A3F090005CE0FDA3E0FEA359
:20450A00E0FF8D828E838FF0124DE3FCBC20028003BC09120DBD00010E90005CEDF0EEA36A
:20452A00F0EFA3F080DC90005CEDF0EEA3F0EFA3F08D828E838FF0124DE3FC900061E4BC69
:20454A002D0104F0BC2D028003BC2B0E90005C74012DF0E43EA3F0EFA3F090005CE0FDA3AB
:20456A00E0FEA3E0FF8D828E838FF0124DE3FCBC3000405DEC24C6405890005FE0FBA3E0B0
:20458A00FC900068EBF0ECA3F090000AC007C006C005124818AB82AC83D005D006D0078DFA
:2045AA00828E838FF0124DE3FAA3AD82AE8390005CEDF0EEA3F0EFA3F08A017A00E924D0F2
:2045CA00F9EA34FFFA90005FE92BF0EA3CA3F0809490005CEDF0EEA3F0EFA3F0900061E064
:2045EA00601190005FE0FEA3E0FFC3E49EFEE49FFF800890005FE0FEA3E0FF8E828F832211
:20304C007924E94400601B7A0190533F789575A000E493F2A308B8000205A0D9F4DAF275DF
:02306C00A0FFC3
:20460A00AFF0AE83E582900062F0EEA3F0EFA3F0900065E4F0A3F0123C04AE82AF83BE089E
:20462A0002800DBE0A02805FBE0D02805A0246B9900065E0FDA3E0FF900065E0F5F0A3E0FF
:20464A0045F060D3900008C007C005123BE7900020123BE7900008123BE7D005D0079000A4
:20466A0062E024FFFAA3E034FFFBA3E0FC900062EAF0EBA3F0ECA3F01DBDFF011F900065EA
:20468A00EDF0EFA3F0809090000D123BE790000A123BE7900062E0FCA3E0FDA3E0FF8C8224
:2046AA008D838FF0E41246F48C828D838FF022900062E0FCA3E0FDA3E0FF8C828D838FF005
:2046CA00EE1246F490006274012CF0E43DA3F0EFA3F0900065E02401F0A3E03400F07F00CD
:0A46EA008E828F83123BE702462107
:1B46F40020F71130F6138883A88220F509F6A8837583002280FEF280F5F022C5
:20470F00C017858117E51724FDF8868318868218E493A324DB600C242560051247FD80F047
:20472F00024815D2D5E493A3C083C082B4731486F018868318868218124DE36054A31247C9
:20474F00FD80F5B4630818E6181247FD8043B46417E630E74618E6F42401F608E6F43400F5
:20476F00F6742D1247FD8033B4782D868318868218E41247EEE5831247EDE5831247EEE583
:20478F00821247EDE5821247EE30D50574301247FDD082D08302471FB475F6E6FA18E6F98D
:2047AF00187C107D271247D8FF7CE87D031247D8C4F5837C647D001247D84283E975F00A76
:2047CF0084C445F0F582EF80A97B000BC3E99CF9EA9DFA50F61BE92CF9EA3DFAEB22C454C1
:2047EF000F700320D51FC2D52490D43440D4C083C082C0F0F582E8C0E0123BE7D0E0F8D0CD
:09480F00F0D082D08322D01722E0
:20481800AA83AB828BF0900068E0A4F8A9F08AF0E0A429F98BF0A3E0A429F58388822222ED
:20483800E58290006BF0E0FFBF3000400EEF24C64009EF24D090006CF0803490006BE0FF73
:20485800BF6100400EEF2485400990006C74A92FF0801C90006BE0FFBF4100400EEF24A53D
:20487800400990006C74C92FF080047582FF2290006CE0FF90006AE0FEC3EF9E40047582A5
:20489800FF228F8222AFF0AE83E582900072F0EEA3F0EFA3F0900072E0FDA3E0FEA3E0FF9E
:2048B80090007CE4F090007DF08D828E838FF0124DE3FCBC20028003BC09070DBD00EA0E37
:2048D80080E7900075EDF0EEA3F0EFA3F08D028E038F048D828E838FF0124DE3FFBF2B02F5
:2048F8008009BF2D1490007D7401F090007574012AF0E43BA3F0ECA3F0900070E0FEA3E07F
:20491800FF900070E0F5F0A3E045F060030249F2900075E0FBA3E0FCA3E0FD9000877439C0
:20493800F07453A3F07480A3F090008A7402F0E4A3F08B828C838DF0124D2DE5828583F013
:2049580045F06034900075E0FBA3E0FCA3E0FD900087743CF07453A3F07480A3F090008AE5
:204978007402F0E4A3F08B828C838DF0124D2DE5828583F045F070259000707410F0E4A3F9
:20499800F0900075E0FBA3E0FCA3E0FD90007574022BF0E43CA3F0EDA3F0024A7E90007598
:2049B800E0FBA3E0FCA3E0FD8B828C838DF0124DE3FABA30199000707408F0E4A3F09000BA
:2049D80075042BF0E43CA3F0EDA3F0024A7E900070740AF0E4A3F0024A7EBE1005BF0002EB
:2049F8008003024A7E900075E0FDA3E0FEA3E0FF9000877439F07453A3F07480A3F0900048
:204A18008A7402F0E4A3F08D828E838FF0124D2DE5828583F045F06034900075E0FDA3E05F
:204A3800FEA3E0FF900087743CF07453A3F07480A3F090008A7402F0E4A3F08D828E838FA0
:204A5800F0124D2DE5828583F045F07019900075E0FDA3E0FEA3E0FF90007574022DF0E444
:204A78003EA3F0EFA3F0900075E0FDA3E0FEA3E0FF8D828E838FF0124DE3FC900070E0FA2F
:204A9800A3E0FB90006AEAF08C82C007C006C005C003C002124838AC82D002D003D005D0BD
:204AB80006D007EC30E74390006DE0F510A3E0F511A3E0F51290006DE0F5F0A3E045F060EC
:204AD80022900072E0F8A3E0F9A3E0FC8510828511838512F0E81246F4A3E91246F4A3EC75
:204AF8001246F4900000E4F5F022900078E4F0A3F0A3F0A3F08A108B118D828E838FF0125B
:204B18004DE3FA90006AE510F08A82C007C006C005124838AA82D005D006D007EA30E703D2
:204B3800024C06C002900078E0F8A3E0F9A3E0FAA3E0FC90007EE8F0E9A3F0EAA3F0ECA381
:204B5800F090008FE510F0E511A3F0E5113395E0A3F0A3F0888289838AF0ECC007C006C033
:204B780005124DFFA982AA83ABF0FCD005D006D007900078E9F0EAA3F0EBA3F0ECA3F0905E
:204B98000078E0F513A3E0F514A3E0F515A3E0F51690007EE0F8A3E0FAA3E0FBA3E0FCC3D3
:204BB800E51398E5149AE5159BE5169CD002500690007C7401F0900078E0F513A3E0F51479
:204BD800A3E0F515A3E0F5168A017A007B007C00900078E92513F0EA3514A3F0EB3515A3EF
:204BF800F0EC3516A3F00DBD00010E024B1190006DE0FAA3E0FBA3E0FC90006DE0F5F0A373
:204C1800E045F060148A828B838CF0ED1246F4A3EE1246F4A3EF1246F490007CE06011907C
:204C380000937422F0E4A3F090FFFF74FFF5F02290007DE0601D900078E0FCA3E0FDA3E073
:204C5800FEA3E0FFC3E49CFCE49DFDE49EFEE49FFF800E900078E0FCA3E0FDA3E0FEA3E007
:094C7800FF8C828D838EF0EF2287
:065339003078003058003E
:204C8100AF83E582900084F0EFA3F0900086E4F0900084E0FEA3E0FF7D00900082E0FBA389
:204CA100E0FC235401FA7036EB2BFBEC33FC900082EBF0ECA3F0900082E0FBA3E0FCC3EE4A
:204CC1009BEF9C5011ECC313CB13CBFC900082EBF0ECA3F080080D900086EDF080BC900025
:204CE10086E0FF900084E0FDA3E0FE900082E0FBA3E0FCC3ED9BEE9C400B900084EDC39BF1
:204D0100F0EE9CA3F0900082E0FDA3E0C313CD13CDFE900082EDF0EEA3F08F061FEE70C34D
:0C4D2100900084E0FEA3E08E82F5832267
:203074007800E84400600A790175A000E4F309D8FC7894E84400600C7901900001E4F0A3C5
:04309400D8FCD9FA91
:204D2D00AFF0AE83E58290008CF0EEA3F0EFA3F090008AE0FEA3E0FF90008AE0F5F0A3E044
:204D4D0045F070049000002290008CE0FBA3E0FCA3E0FD900087E0F8A3E0F9A3E0FA1EBE31
:204D6D00FF011FEE4F60418B828C838DF0124DE3F5186034C006C007888289838AF0124D31
:204D8D00E3FFB518028006D007D006801BD007D0060BBB00010C90008CEBF0ECA3F0EDA301
:204DAD00F008B800B90980B690008CEBF0ECA3F0EDA3F08B828C838DF0124DE3FB7F00886B
:164DCD008289838AF0124DE3F87E00EBC398FBEF9E8B82F583229B
:20301100E58124FCC3C8C0E0C082E608467006E5824583601218E58296F58208E58396428D
:1B3031008208E5F0964582D082C8D0E0C82275811B124E6BE582600302300E2E
:1C4DE30020F71430F6148883A88220F507E6A88375830022E280F7E49322E022DF
:204DFF00A882A983AAF0FB88F090008FE0A4FCADF089F0E0A42DFDE435F0FE88F0A3E0A428
:204E1F002DFDE5F03EFEE433FF89F0E0A42EFEE5F03FFF88F0A3E0A42EFEE5F03FFF8AF08E
:204E3F0090008FE0A42EFEE5F03FFF8BF0E0A42FFF8AF0A3E0A42FFF89F0A3E0A42FFF881F
:0C4E5F00F0A3E0A42F8EF08D838C822243
:044E6B00758200222A
:00000001FF
