:203090000000000000227E647F00C007C006123090D006D0071EBEFF011FEE4F70EC7E641B
:2030B000FFC007C006123090D006D0071EBEFF011FEE4F70EC7E64FFC007C006123090D051
:2030D00006D0071EBEFF011FEE4F70EC7E64FFC007C006123090D006D0071EBEFF011FEE99
:2030F0004F70EC7E64FFC007C006123090D006D0071EBEFF011FEE4F70EC22D295D2961291
:203110003090C295123090C29622C296C295123090D296123090D29522D295D29612309057
:20313000C296C29522D295900001E4F07F00D296C007123090123090123090D00790000156
:20315000E025E0F0E0FEA295E4339000014EF0C2960FBF080040D7900001E0F58222AF830E
:20317000E582900002F0EFA3F07E007F00900002E0FCA3E0FDEC23540124FF9295D296C013
:2031900007C006C005C004123090D004D005D006D007C296EC2CFCED33FD900002ECF0EDBD
:2031B000A3F00EBE00010FC3EE9408EF6480948040BBD295D296123090C29622AF83E582AD
:2031D000900006F0EFA3F012310B9000A1E0FEA3E0FF8E828F8312316E900006E0FEA3E02E
:2031F000FF8E828F83C007C00612316E900004E0FCA3E0FD8C828D8312316E12311AD0066E
:20321000D00790000674012EF0E43FA3F0123090023090AF83E58290000AF0EFA3F012316C
:203230000B9000A3E0FEA3E0FF8E828F8312316E90000AE0FEA3E0FF8E828F8312316E90B0
:203250000008E0FEA3E0FF7C007D008E828F83C007C006C005C00412316E123096D004D098
:2032700005D006D0070CBC00010DC374109C74808DF063F08095F050D212311A9000A5E076
:203290002401F0A3E03400F0123090023090D295D296123090C29622AF83E58290000CF08E
:2032B000EFA3F0D29512310B9000A1E0FEA3E0FF8E828F8312316E90000CE0FEA3E0FF8ED9
:2032D000828F8312316E12309012310B9000A1E0FEA3E0FF4306018E828F8312316E123089
:2032F00090123090123090123090123135AF82D295D296C007123090C29612311AD0078F8C
:203310008222AF83E582900010F0EFA3F0900010E0FEA3E0FF7C0074075FA2E7CC33CC3371
:20333000CC540130E00244FEFD9000ADECF0EDA3F09000A174A04CF0EDA3F09000A9EEF05A
:20335000E4A3F0C007C00612310B9000A1E0FCA3E0FD8C828D8312316E9000A9E0FCA3E017
:20337000FD8C828D8312316E12309012310B1230909000A1E0FCA3E0FD4304018C828D838C
:2033900012316E123090123090123090123090D006D00790000EE0FCA3E0FDECC39EFCED47
:2033B0009FFD7A007B00C3EC9AED64808BF063F08095F0500302349F9000517410F0E4A37B
:2033D000F08A828B83C007C006C005C004C003C002124C7EE5828583F0D002D003D004D0B4
:2033F00005D006D00745F07058C007C006C005C004C003C0027464C0E07459C0E012472C09
:2034100015811581D002D003D004D005D006D007C007C006C005C004C003C002C006C0074D
:203430007467C0E07459C0E07480C0E0124E96E58124FBF581D002D003D004D005D006D01B
:20345000070EBE00010FC007C006C005C004C003C002123135A8827900C000C001746FC09F
:20347000E07459C0E07480C0E0124E96E58124FBF581C295D296123090D002D003D004D090
:2034900005D006D007C2960ABA00010B0233B6C295D296123090C29612311AD295023090E8
:2034B00012310B7E0A7F00C007C006123129D006D0071EBEFF011FEE4F70EC12310B0231EC
:0134D0001AE1
:0F5964000A0D0025782020203A20002578200009
:0330000002303467
:03308D000230030B
:033003000239DCB3
:2034D1001244D6AE828E057F00BD0D05BF000280EF900012EEF08D828F831244B91244D692
:2034F100AE828E057F00BD0D05BF000280EF900013EEF08D828F831244B9900012E0FFBF89
:2035110030030235F4900012E0FFBF31030235F4900012E0FFBF32030235F4900012E0FF7C
:20353100BF33030235F4900012E0FFBF34030235F4900012E0FFBF35030235F4900012E093
:20355100FFBF36030235F4900012E0FFBF37030235F4900012E0FFBF38030235F49000124B
:20357100E0FFBF39030235F4900012E0FFBF61028071900012E0FFBF62028067900012E094
:20359100FFBF6302805D900012E0FFBF64028053900012E0FFBF65028049900012E0FFBFF1
:2035B1006602803F900012E0FFBF41028035900012E0FFBF4202802B900012E0FFBF4302E7
:2035D1008021900012E0FFBF44028017900012E0FFBF4502800D900012E0FFBF46028003FD
:2035F1000236F3900013E0FFBF30030236D8900013E0FFBF31030236D8900013E0FFBF3213
:20361100030236D8900013E0FFBF33030236D8900013E0FFBF34030236D8900013E0FFBF36
:2036310035030236D8900013E0FFBF36030236D8900013E0FFBF37030236D8900013E0FF9A
:20365100BF38030236D8900013E0FFBF39030236D8900013E0FFBF6102806C900013E0FFB0
:20367100BF62028062900013E0FFBF63028058900013E0FFBF6402804E900013E0FFBF659B
:20369100028044900013E0FFBF6602803A900013E0FFBF41028030900013E0FFBF420280B7
:2036B10026900013E0FFBF4302801C900013E0FFBF44028012900013E0FFBF4502800890F8
:2036D1000013E0FFBF461B900029E4F0A3F0A3F090002C7410F0E4A3F090001275F0000264
:2036F10044E490FFFF221244D6AE828E057F00BD0D05BF000280EF900015EEF08D828F83D0
:203711001244B91244D6AE828E057F00BD0D05BF000280EF900016EEF08D828F831244B968
:203731001244D6AE828E057F00BD0D05BF000280EF900017EEF08D828F831244B9900015B1
:20375100E0FFBF30028049900015E0FFBF3102803F900015E0FFBF32028035900015E0FFDA
:20377100BF3302802B900015E0FFBF34028021900015E0FFBF35028017900015E0FFBF36F5
:2037910002800D900015E0FFBF37028003023989900016E0FFBF300302388A900016E0FF06
:2037B100BF310302388A900016E0FFBF320302388A900016E0FFBF330302388A900016E040
:2037D100FFBF340302388A900016E0FFBF350302388A900016E0FFBF360302388A900016F8
:2037F100E0FFBF370302388A900016E0FFBF380302388A900016E0FFBF390302388A900005
:2038110016E0FFBF61028071900016E0FFBF62028067900016E0FFBF6302805D900016E0F4
:20383100FFBF64028053900016E0FFBF65028049900016E0FFBF6602803F900016E0FFBF5D
:2038510041028035900016E0FFBF4202802B900016E0FFBF43028021900016E0FFBF440278
:203871008017900016E0FFBF4502800D900016E0FFBF46028003023989900017E0FFBF3040
:203891000302396E900017E0FFBF310302396E900017E0FFBF320302396E900017E0FFBFE1
:2038B100330302396E900017E0FFBF340302396E900017E0FFBF350302396E900017E0FF47
:2038D100BF360302396E900017E0FFBF370302396E900017E0FFBF380302396E900017E05E
:2038F100FFBF390302396E900017E0FFBF4102806C900017E0FFBF42028062900017E0FFAF
:20391100BF43028058900017E0FFBF4402804E900017E0FFBF45028044900017E0FFBF4686
:2039310002803A900017E0FFBF61028030900017E0FFBF62028026900017E0FFBF630280E9
:203951001C900017E0FFBF64028012900017E0FFBF65028008900017E0FFBF661B9000294A
:20397100E4F0A3F0A3F090002C7410F0E4A3F090001575F0000244E4900015E0FFBF0A0A0A
:20399100900015E0FFBF0D028022900016E0FFBF0A0A900016E0FFBF0D028010900017E060
:2039B100FFBF0A23900017E0FFBF0D1B900029E4F0A3F0A3F090002C7410F0E4A3F09000B4
:2039D1001575F0000244E490FFFF227473C0E07459C0E012472C1581158174A8C0E0745954
:2039F100C0E012472C158115817473C0E07459C0E012472C1581158174DDC0E07459C0E062
:203A110012472C15811581740BC0E0745AC0E012472C15811581741DC0E0745AC0E01247AE
:203A31002C15811581742EC0E0745AC0E012472C15811581743EC0E0745AC0E012472C1562
:203A51008115817450C0E0745AC0E012472C158115817473C0E07459C0E012472C15811597
:203A7100817464C0E0745AC0E012472C158115817473C0E07459C0E012472C158115811266
:203A910044D6AE828E057F008D828F83C0061244B9D006BE0A0280BABE0D0280B5BE4503E1
:203AB10002446EBE4803023F67BE50030241FCBE5203023DDBBE570280030244A17477C0E7
:203AD100E0745AC0E012472C1581158174AAC0E0745AC0E012472C158115817477C0E074FA
:203AF1005AC0E012472C1581158174BCC0E0745AC0E012472C158115811236F7E58285836D
:203B1100F0900019F0E5F0A3F0900019E0FEA3E0FFBEFF47BFFF44C007C006C006C0077406
:203B3100E0C0E0745AC0E012472CE58124FCF581D006D007C006C0077409C0E0745BC0E03F
:203B510012472CE58124FCF5811236F7E5828583F0900019F0E5F0A3F080AE900019E0FE7F
:203B7100A3E0FF20E70FC374FF9E74878FF063F08095F0506C900019E0FCA3E0FDC005C0B0
:203B910004C004C00574E0C0E0745AC0E012472CE58124FCF581D004D005C004C0057409F5
:203BB100C0E0745BC0E012472CE58124FCF5811236F7AC82AD83900019ECF0EDA3F0BC0AFC
:203BD10005BD00028095BC0D05BD0002808D1236F7E5828583F0900019F0E5F0A3F0023B85
:203BF1006CC007C006C006C0077421C0E0745BC0E012472CE58124FCF581D006D0077C00E0
:203C110074075FA2E7CC33CC33CC540130E00244FEFD9000A174A04CF0EDA3F09000A5EE9C
:203C3100F0E4A3F0744CC0E0745BC0E012472C158115811234D1E5828583F090001BF0E596
:203C5100F0A3F090001BE0FEA3E0FFBEFF47BFFF44C007C006C006C007747BC0E0745BC087
:203C7100E012472CE58124FCF581D006D007C006C0077497C0E0745BC0E012472CE581246F
:203C9100FCF5811234D1E5828583F090001BF0E5F0A3F080AE90001BE0FEA3E0FF20E70FD9
:203CB100C374FF9E74808FF063F08095F0506C90001BE0FCA3E0FDC005C004C004C005740B
:203CD1007BC0E0745BC0E012472CE58124FCF581D004D005C004C0057497C0E0745BC0E07C
:203CF10012472CE58124FCF5811234D1AC82AD8390001BECF0EDA3F0BC0A05BD0002809517
:203D1100BC0D05BD0002808D1234D1E5828583F090001BF0E5F0A3F0023CA6C007C006C04E
:203D310006C00774ACC0E0745BC0E07480C0E0124E96E58124FBF581D006D0079000A5E02F
:203D5100FCA3E0FD900004EEF0EFA3F08C828D831231CC7E647F00C007C006123090D0061F
:203D7100D0071EBEFF011FEE4F70EC7E64FFC007C006123090D006D0071EBEFF011FEE4FA2
:203D910070EC7E64FFC007C006123090D006D0071EBEFF011FEE4F70EC7E64FFC007C006C7
:203DB100123090D006D0071EBEFF011FEE4F70EC7E64FFC007C006123090D006D0071EBE16
:203DD100FF011FEE4F70EC023A637477C0E0745AC0E012472C1581158174D0C0E0745BC05E
:203DF100E012472C158115817477C0E0745AC0E012472C1581158174E1C0E0745BC0E01201
:203E1100472C158115811236F7E5828583F090001DF0E5F0A3F090001DE0FEA3E0FFBEFF85
:203E310047BFFF44C007C006C006C0077404C0E0745CC0E012472CE58124FCF581D006D05F
:203E510007C006C0077428C0E0745CC0E012472CE58124FCF5811236F7E5828583F0900062
:203E71001DF0E5F0A3F080AE90001DE0FEA3E0FF20E70FC374FF9E74878FF063F08095F0C5
:203E9100506C90001DE0FCA3E0FDC005C004C004C0057404C0E0745CC0E012472CE58124A3
:203EB100FCF581D004D005C004C0057428C0E0745CC0E012472CE58124FCF5811236F7AC35
:203ED10082AD8390001DECF0EDA3F0BC0A05BD00028095BC0D05BD0002808D1236F7E58237
:203EF1008583F090001DF0E5F0A3F0023E79C007C006C006C0077445C0E0745CC0E01247BF
:203F11002CE58124FCF581D006D0077C0074075FA2E7CC33CC33CC540130E00244FEFD90DC
:203F310000A174A04CF0EDA3F07F009000A7EEF0EFA3F08E828F831232A8AF827E00C00765
:203F5100C0067466C0E0745CC0E012472CE58124FCF581023A637477C0E0745AC0E012472E
:203F71002C158115817498C0E0745CC0E012472C158115817477C0E0745AC0E012472C1578
:203F910081158174A8C0E0745CC0E012472C158115811236F7E5828583F090001FF0E5F00A
:203FB100A3F090001FE0FEA3E0FFBEFF47BFFF44C007C006C006C00774DCC0E0745CC0E0CE
:203FD10012472CE58124FCF581D006D007C006C0077405C0E0745DC0E012472CE58124FC80
:203FF100F5811236F7E5828583F090001FF0E5F0A3F080AE90001FE0FEA3E0FF20E70FC37F
:2040110074FF9E74878FF063F08095F0506C90001FE0FCA3E0FDC005C004C004C00574DC83
:20403100C0E0745CC0E012472CE58124FCF581D004D005C004C0057405C0E0745DC0E01210
:20405100472CE58124FCF5811236F7AC82AD8390001FECF0EDA3F0BC0A05BD00028095BCDD
:204071000D05BD0002808D1236F7E5828583F090001FF0E5F0A3F0024005C006C007742F35
:20409100C0E0745DC0E012472CE58124FCF581745CC0E0745DC0E012472C158115811236A3
:2040B100F7E5828583F0900021F0E5F0A3F0900021E0FEA3E0FFBEFF47BFFF44C007C006EC
:2040D100C006C007748EC0E0745DC0E012472CE58124FCF581D006D007C006C00774B5C08B
:2040F100E0745DC0E012472CE58124FCF5811236F7E5828583F0900021F0E5F0A3F080AE08
:20411100900021E0FEA3E0FF20E70FC374FF9E74878FF063F08095F0506C900021E0FCA3D5
:20413100E0FDC005C004C004C005748EC0E0745DC0E012472CE58124FCF581D004D005C082
:2041510004C00574B5C0E0745DC0E012472CE58124FCF5811236F7AC82AD83900021ECF0A0
:20417100EDA3F0BC0A05BD00028095BC0D05BD0002808D1236F7E5828583F0900021F0E551
:20419100F0A3F0024111C007C006C006C00774DDC0E0745DC0E012472CE58124FCF581D06A
:2041B10006D00790001FE0FCA3E0FDC3EE9CEF64808DF063F08095F0500F7408C0E0745EC4
:2041D100C0E012472C1581158190001FE0FEA3E0FF900021E0FCA3E0FD90000EECF0EDA357
:2041F100F08E828F83123312023A637477C0E0745AC0E012472C158115817455C0E0745EC1
:20421100C0E012472C158115817477C0E0745AC0E012472C158115817467C0E0745EC0E0A5
:2042310012472C158115811236F7E5828583F0900023F0E5F0A3F0900023E0FEA3E0FFBE42
:20425100FF47BFFF44C007C006C006C0077483C0E0745EC0E012472CE58124FCF581D0068B
:20427100D007C006C00774B4C0E0745EC0E012472CE58124FCF5811236F7E5828583F090E0
:204291000023F0E5F0A3F080AE900023E0FEA3E0FF20E70FC374FF9E74878FF063F0809585
:2042B100F0506C900023E0FCA3E0FDC005C004C004C0057483C0E0745EC0E012472CE5812C
:2042D10024FCF581D004D005C004C00574DAC0E0745EC0E012472CE58124FCF5811236F7E5
:2042F100AC82AD83900023ECF0EDA3F0BC0A05BD00028095BC0D05BD0002808D1236F7E5E3
:20431100828583F0900023F0E5F0A3F002429AC007C006C006C00774F7C0E0745EC0E01280
:20433100472CE58124FCF581D006D0077C0074075FA2E7CC33CC33CC540130E00244FEFD01
:204351009000B1ECF0EDA3F09000A374A04CF0EDA3F09000ABEEF0E4A3F07424C0E0745F11
:20437100C0E012472C158115811234D1E5828583F0900025F0E5F0A3F0900025E0FEA3E042
:20439100FFBEFF33BFFF30747BC0E0745BC0E012472C158115817497C0E0745BC0E012470D
:2043B1002C158115811234D1E5828583F0900025F0E5F0A3F080C2900025E0FEA3E0FF209A
:2043D100E70FC374FF9E74808FF063F08095F0504F747BC0E0745BC0E012472C15811581E9
:2043F1007497C0E0745BC0E012472C158115811234D1AC82AD83900025ECF0EDA3F0BC0A95
:2044110005BD000280B1BC0D05BD000280A91234D1E5828583F0900025F0E5F0A3F0809746
:20443100C007C006C006C00774ACC0E0745BC0E07480C0E0124E96E58124FBF581D006D0F7
:2044510007D2959000ABE0FCA3E0FD900008EEF0EFA3F08C828D83123223023A637477C07F
:20447100E0745AC0E012472C158115817446C0E0745FC0E012472C158115817477C0E074AF
:204491005AC0E012472C158115811234B0023A637458C0E0745FC0E07480C0E0124E96154D
:2044B1008115811581023A63AF83E582900027F0EFA3F03099FD900027E0FEA3E08E99C216
:1344D100999000002210980280FBAE997F008E828F83225E
:205973000A0D7E7E7E7E7E7E7E7E7E7E7E7E7E7E7E7E7E7E7E7E7E7E7E7E7E7E7E7E7E7E39
:205993007E7E7E7E7E7E7E7E7E7E7E7E7E7E7E7E7E200A0D000A0D7E7E7E7E7E7E7E7E7EDA
:2059B3007E7E7E7E7E7E7E7E4932437E7E7E7E7E7E7E7E7E7E7E7E7E7E7E7E7E7E7E7E7ED0
:2059D3007E7E7E7E7E7E200A0D000A0D54686520666F6C6C6F77696E6720636F6D6D616EC5
:2059F30064732077696C6C20626520706572666F726D6564200A0D000A0D572D57726974A2
:205A1300652042797465200A0D000A0D522D526561642042797465200A0D000A0D482D4852
:205A330065782044756D70200A0D000A0D502D50616765205772697465200A0D000A0D45BA
:205A53002D526573657420456570726F6D200A0D000A0D456E74657220546865204B6579A5
:205A73000A0D20000A0D2A2A2A2A2A2A2A2A2A2A2A2A2A2A2A2A2A2A2A2A2A2A2A2A2A2A81
:205A93002A2A2A2A2A2A2A2A2A2A2A2A2A2A2A2A2A2A2A200A0D000A0D09095752495445EA
:205AB30020425954450A0D20000A0D456E746572207468652033204469676974205772691C
:205AD300746520416464726573730A0D000A0D546865205772697465204164647265737394
:205AF30020456E746572656420697320494E56414C49440A0D000A0D456E746572206120BC
:205B13004E657720416464726573730A0D000A0D546865204164647265737320666F7220A6
:205B33005772697465204F7065726174696F6E2069732025782E0A0D000A0D456E74657263
:205B530020746865203220446967697420446174612076616C756520746F206265205772C4
:205B7300697474656E0A0D000A0D4461746120456E746572656420697320494E56414C4980
:205B9300440A0D000A0D456E7465722061204E657720446174610A0D000A0D446174612055
:205BB30056616C756520746F206265205772697474656E2069732025782E0A0D000A0D09C0
:205BD300095245414420425954450A0D20000A0D456E74657220746865203320446967699C
:205BF30074205265616420416464726573730A0D000A0D52656164204164647265737320EC
:205C1300656E746572656420697320494E56414C49440A0D000A0D456E7465722061204E4C
:205C33006577205265616420416464726573730A0D000A0D546865205265616420427974B9
:205C53006520416464726573732069732025782E0A0D000A0A0A0D205468652044617461E2
:205C73002050726573656E742061742074686520526561642041646472657373206973201C
:205C930025780A0D000A0D09094845582044554D500A0D20000A0D456E746572207468652C
:205CB3002033204469676974205374617274696E67204164647265737320666F72204865E7
:205CD300782044756D700A0D000A0D4865782044756D70205374617274696E6720416464E5
:205CF3007265737320697320494E56414C49440A0D000A0D456E7465722061204E6577209A
:205D13004865782044756D70205374617274696E6720416464726573730A0D000A0D486568
:205D3300782044756D70205374617274696E67204164647265737320656E746572656420A9
:205D530069732025782E0A0D000A0D456E74657220746865203320446967697420456E6441
:205D7300696E67204164647265737320666F72204865782044756D700A0D000A0D48657837
:205D93002044756D7020456E64696E67204164647265737320697320494E56414C49440AB2
:205DB3000D000A0D456E7465722061204E6577204865782044756D7020456E64696E672053
:205DD300416464726573730A0D000A0D4865782044756D7020456E64696E672041646472D1
:205DF30065737320656E74657265642069732025782E0A0D000A0D4552524F523A202054D1
:205E130068652076616C7565206F662048657820537461727420416464726573732077611F
:205E330073206C657373207468616E207468652048657820456E6420416464726573730A6D
:205E53000D000A0D0909504147452057524954450A0D20000A0D456E746572207468652064
:205E7300506167652041646472657373200A0D000A0D5468652076616C7565206F6620707B
:205E9300616765206164647265737320656E746572656420697320696E76616C69640A0D9B
:205EB300000A0D456E7465722061206E65772070616765207374617274696E67206164643D
:205ED300726573730A0D000A0D456E7465722061206E65772070616765206164647265738B
:205EF300730A0D000A0D5468652076616C7565206F662070616765206164647265737320B8
:205F1300656E74657265642069732025782E0A0D000A0D456E7465722074686520646174BA
:205F33006120746F2070616765207772697465200A0D000A0D09090952455345542049325B
:205F5300430A0D20000A0D494E56414C494420494E5055543A20504C5320454E54455220DF
:125F730054484520434F5252454354204B45590A0D00E9
:125F9600000000000000000000000000000000000000F9
:2044E400AFF0AE83E58290002EF0EEA3F0EFA3F090002EE0FDA3E0FEA3E0FF8D828E838F83
:20450400F01258D8FCBC20028003BC09070DBD00EA0E80E7900031EDF0EEA3F0EFA3F08DE5
:20452400828E838FF01258D8FCBC2D149000377401F09000312DF0E43EA3F0EFA3F0800564
:20454400900037E4F0900037E06079900031E0FDA3E0FEA3E0FF8D828E838FF01258D8FDBD
:20456400BD20028022BD0902801D900031E0FDA3E0FEA3E0FF8D828E838FF01258D8FFBF11
:204584002D028003BF2B3D900029E0FDA3E0FEA3E0FF900029E0F5F0A3E045F0601F900060
:2045A4002EE0FAA3E0FBA3E0FC8D828E838FF0EA124711A3EB124711A3EC1247119000007E
:2045C400E4F5F022900031E0FDA3E0FEA3E0FF90002CE0FBA3E0FC90003C7434F07400A3BA
:2045E400F0E4A3F090003FEBF0ECA3F08D828E838FF012489AAC82AD83AEF0FF900034E0F5
:20460400F508A3E0F509A3E0F50A900031E0F8A3E0FAA3E0FBC008C009C00A88828A838B05
:20462400F01230061581158115817043900029E0F50BA3E0F50CA3E0F50D900029E0F5F0A9
:20464400A3E045F0602290002EE0F8A3E0FAA3E0FB850B82850C83850DF0E8124711A3EA04
:20466400124711A3EB124711900000E4F5F022900029E0F9A3E0FAA3E0FB900029E0F5F04E
:20468400A3E045F0601789828A838BF0E508124711A3E509124711A3E50A1247119000373F
:2046A400E07021C374FF9C74FF9D74FF9E747F9F501290009F7422F0E4A3F090FFFF75F07F
:2046C400FF747F22900037E0601EC3E49CE49DE49E74809F501290009F7422F0E4A3F090A6
:2046E4000000E4F5F0748022900037E0600FC3E49CF8E49DF9E49EFAE49FFB80088C008D71
:0D470400018E028F03888289838AF0EB22E8
:06306300E478FFF6D8FD41
:203041007912E94400601B7A01905F9678A175A000E493F2A308B8000205A0D9F4DAF2758D
:02306100A0FFCE
:1B47110020F71130F6138883A88220F509F6A8837583002280FEF280F5F022A7
:20472C00C015858115E51524FDF8868318868218E493A324DB600C2425600512481A80F012
:20474C00024832D2D5E493A3C083C082B4731486F0188683188682181258D86054A312488E
:20476C001A80F5B4630818E61812481A8043B46417E630E74618E6F42401F608E6F434009D
:20478C00F6742D12481A8033B4782D868318868218E412480BE58312480AE58312480BE5EE
:2047AC008212480AE58212480B30D505743012481AD082D08302473CB475F6E6FA18E6F9F9
:2047CC00187C107D271247F5FF7CE87D031247F5C4F5837C647D001247F54283E975F00A02
:2047EC0084C445F0F582EF80A97B000BC3E99CF9EA9DFA50F61BE92CF9EA3DFAEB22C454A4
:20480C000F700320D51FC2D52490D43440D4C083C082C0F0F582E8C0E01244B9D0E0F8D0D4
:09482C00F0D082D08322D01522C5
:20483500E58290003AF0E0FFBF3000400EEF24C64009EF24D090003BF0803490003AE0FF09
:20485500BF6100400EEF2485400990003B74A92FF0801C90003AE0FFBF4100400EEF24A5A2
:20487500400990003B74C92FF080047582FF2290003BE0FF900039E0FEC3EF9E400475823B
:20489500FF228F8222AFF0AE83E582900041F0EEA3F0EFA3F0900041E0FDA3E0FEA3E0FF03
:2048B50090004BE4F090004CF08D828E838FF01258D8FCBC20028003BC09070DBD00EA0E9C
:2048D50080E7900044EDF0EEA3F0EFA3F08D028E038F048D828E838FF01258D8FFBF2B0229
:2048F5008009BF2D1490004C7401F090004474012AF0E43BA3F0ECA3F090003FE0FEA3E015
:20491500FF90003FE0F5F0A3E045F060030249EF900044E0FBA3E0FCA3E0FD90005A748509
:20493500F0745FA3F07480A3F090005D7402F0E4A3F08B828C838DF0124D92E5828583F0D2
:2049550045F06034900044E0FBA3E0FCA3E0FD90005A7488F0745FA3F07480A3F090005D1B
:204975007402F0E4A3F08B828C838DF0124D92E5828583F045F0702590003F7410F0E4A3C8
:20499500F0900044E0FBA3E0FCA3E0FD90004474022BF0E43CA3F0EDA3F0024A7B90004431
:2049B500E0FBA3E0FCA3E0FD8B828C838DF01258D8FABA301990003F7408F0E4A3F09000EE
:2049D50044042BF0E43CA3F0EDA3F0024A7B90003F740AF0E4A3F0024A7BBE1005BF000256
:2049F5008003024A7B900044E0FDA3E0FEA3E0FF90005A7485F0745FA3F07480A3F0900054
:204A15005D7402F0E4A3F08D828E838FF0124D92E5828583F045F06034900044E0FDA3E05B
:204A3500FEA3E0FF90005A7488F0745FA3F07480A3F090005D7402F0E4A3F08D828E838FA5
:204A5500F0124D92E5828583F045F07019900044E0FDA3E0FEA3E0FF90004474022DF0E444
:204A75003EA3F0EFA3F0900044E0FDA3E0FEA3E0FF8D828E838FF01258D8FC90003FE0FA94
:204A9500A3E0FB900039EAF08C82C007C006C005C003C002124835AC82D002D003D005D0F4
:204AB50006D007EC30E74390003CE0F50EA3E0F50FA3E0F51090003CE0F5F0A3E045F06057
:204AD50022900041E0F8A3E0F9A3E0FC850E82850F838510F0E8124711A3E9124711A3EC73
:204AF500124711900000E4F5F022900047E4F0A3F0A3F0A3F08A0E8B0F8D828E838FF01275
:204B150058D8FA900039E50EF08A82C007C006C005124835AA82D005D006D007EA30E7030B
:204B3500024C03C002900047E0F8A3E0F9A3E0FAA3E0FC90004DE8F0E9A3F0EAA3F0ECA3E9
:204B5500F090009BE50EF0E50FA3F0E50F3395E0A3F0A3F0888289838AF0ECC007C006C030
:204B7500051258F4A982AA83ABF0FCD005D006D007900047E9F0EAA3F0EBA3F0ECA3F09092
:204B95000047E0F511A3E0F512A3E0F513A3E0F51490004DE0F8A3E0FAA3E0FBA3E0FCC340
:204BB500E51198E5129AE5139BE5149CD002500690004B7401F0900047E0F511A3E0F512EA
:204BD500A3E0F513A3E0F5148A017A007B007C00900047E92511F0EA3512A3F0EB3513A32D
:204BF500F0EC3514A3F00DBD00010E024B0E90003CE0FAA3E0FBA3E0FC90003CE0F5F0A3DD
:204C1500E045F060148A828B838CF0ED124711A3EE124711A3EF12471190004BE060119056
:204C3500009F7422F0E4A3F090FFFF74FFF5F02290004CE0601D900047E0FCA3E0FDA3E0CC
:204C5500FEA3E0FFC3E49CFCE49DFDE49EFEE49FFF800E900047E0FCA3E0FDA3E0FEA3E03B
:094C7500FF8C828D838EF0EF228A
:065F8500307800305800E6
:204C7E00AF83E582900053F0EFA3F0900053E0FEA3E0FF30E709C3E49EFCE49FFD80048EF2
:204C9E00048F05900051E0FEA3E0FF30E709C3E49EFAE49FFB80048E028F03900055EAF0DB
:204CBE00EBA3F08C828D83124CE6AE82AF83900053E0A3E030E70CC3E49EFCE49FFD8C825C
:084CDE008D83228E828F832258
:204CE600AF83E582900057F0EFA3F0900059E4F0900057E0FEA3E0FF7D00900055E0FBA3D8
:204D0600E0FC235401FA7036EB2BFBEC33FC900055EBF0ECA3F0900055E0FBA3E0FCC3EE3E
:204D26009BEF9C5011ECC313CB13CBFC900055EBF0ECA3F080080D900059EDF080BC900019
:204D460059E0FF900057E0FDA3E0FE900055E0FBA3E0FCC3ED9BEE9C400B900057EDC39B3F
:204D6600F0EE9CA3F0900055E0FDA3E0C313CD13CDFE900055EDF0EEA3F08F061FEE70C342
:0C4D8600900057E0FEA3E08E82F583222F
:203069007800E84400600A790175A000E4F309D8FC78A0E84400600C7901900001E4F0A3C4
:04308900D8FCD9FA9C
:204D9200AFF0AE83E58290005FF0EEA3F0EFA3F090005DE0FEA3E0FF90005DE0F5F0A3E066
:204DB20045F070049000002290005FE0FBA3E0FCA3E0FD90005AE0F8A3E0F9A3E0FA1EBE26
:204DD200FF011FEE4F60418B828C838DF01258D8F5206034C006C007888289838AF01258B9
:204DF200D8FFB520028006D007D006801BD007D0060BBB00010C90005FEBF0ECA3F0EDA3CC
:204E1200F008B800B90980B690005FEBF0ECA3F0EDA3F08B828C838DF01258D8FB7F008832
:164E32008289838AF01258D8F87E00EBC398FBEF9E8B82F5832235
:204E4800C0158581157E008E831244B9D01522AFF0AE83E582900063F0EEA3F0EFA3F09008
:204E68000063E0FDA3E0FEA3E0FF900062E0FC900077E4F0A3F0A3F090007AEDF0EEA3F0B0
:204E8800EFA3F090007DECF0904E48024F9FC015E581F51524FBFF900077E4F0A3F0A3F025
:204EA800E51524FBF890007AE6F008E6A3F008E6A3F090007DEFF0904E48124F9FD01522DE
:204EC800E582900073F0E0FF900069E0C0E0A3E0C0E0A3E0C0E0124EE3800D900067E0C06B
:204EE800E0A3E0C0E08F8222158115811581900071E02401F0A3E03400F022E58290007488
:204F0800F0E02430FF24C6500D74072FFF900066E060034307208F82024EC8E5829000753E
:204F2800F0E0FFC4540FF582C007124F03D00753070F8F82024F03E582900076F090006CD3
:204F4800E0FCA3E0FDA3E0FEA3E0FF900070E0FB752020900076E0F98B00E828F8EF235482
:204F68000148FBEC2CFCED33FDEE33FEEF33FFC3EB994007EBC399FB430401E52014FA8ABF
:204F88002070D590006CECF0EDA3F0EEA3F0EFA3F0900070EBF022AF83E58290007EF0EFC6
:204FA800A3F090007EE0FEA3E0FF900067EEF0EFA3F0900077E0FDA3E0FEA3E0FF900069B1
:204FC800EDF0EEA3F0EFA3F0900071E4F0A3F090007AE0FDA3E0FEA3E0FF8D828E838FF0F8
:204FE8001258D8FC90007A74012DF0E43EA3F0EFA3F0EC7003025894BC2502800302588CFF
:20500800900080E4F0900081F0900082F0900083F0900084F0900085F0900086F090008778
:20502800F0900089F090008AF0A3F090008C14F0A3F090007AE0FDA3E0FEA3E0FF8D828E98
:20504800838FF01258D8FBA3AD82AE8390007AEDF0EEA3F0EFA3F0900090EBF0BB25088BAE
:2050680082124EC8024FD7BB30005003025138EB24C6500302513890008CE0F516A3E0F55B
:205088001774FFB51663B51760C005C006C00790008AE0FAA3E0FF900099EAF0EFA3F09047
:2050A800000AC005C0031258B8AE82AF83D003D0058B027D00EA2EFEED3FFFEE24D0FEEF10
:2050C80034FFFF90008AEEF0EFA3F0D007D006D00590008AE0F5F0A3E045F0600302504509
:2050E8009000817401F0025045C005C006C007900099E516F0E517A3F090000AC006C00581
:20510800C0031258B8AA82AF83D003D005D0067E00EB2AFAEE3FFFEA24D0FAEF34FFFF9084
:20512800008CEAF0EFA3F0D007D006D005025045900090E0FBBB2E2FC005C006C007900071
:205148008CE0FAA3E0FFBAFF05BFFF028009D007D006D005025045D007D006D00590008CA1
:20516800E4F0A3F0025045BB61004014EB2485400F90009074DF5BF09000667401F0800538
:20518800900066E4F0900090E0FBBB20028075BB2B028067BB2D028059BB4202806FBB43F2
:2051A80002807CBB440302542FBB4603025455BB4803025045BB490302542FBB4A03025030
:2051C80045BB4C028050BB4F0302543DBB500302539DBB53028077BB5403025045BB550346
:2051E800025445BB580302544DBB5A0302504502545D9000807401F002504590008274015E
:20520800F00250459000837401F00250459000857401F00250459000867401F0025045903D
:205228000085E0600E90007DE014F9F0900090E7F0800F90007DE024FEFFF08F0190009075
:20524800E7F0900090E0F582124EC802546C90007DE024FDFFF08F018705098706098707C8
:20526800191990006CEDF0EEA3F0EFA3F08D828E838FF01258A085821685831790008CE037
:20528800FAA3E0FDBAFF0DBDFF0A90008CE516F0E517A3F0900080E0704B90008AE0FAA328
:2052A800E0FDC3E5169AE5179D503A90008AEAC39516F0ED9517A3F090008AE0FAA3E0FD8C
:2052C8008A068D071ABAFF011DEE4F6010758220C005C002124EC8D002D00580E390008A1A
:2052E800EAF0EDA3F090008CE0F519A3E0F51A90006CE0FAA3E0FDA3E0FF8A828D838FF03D
:205308001258D8F518603CC3E495197480851AF063F08095F0502C151974FFB51902151A4E
:20532800851882124EC890006CE0FAA3E0FDA3E0FF0ABA00010D90006CEAF0EDA3F0EFA38C
:20534800F080AC900080E0700302546C90008AE0FEA3E0FFC3E5169EE5179F400302546C8E
:2053680090008AEEC39516F0EF9517A3F090008AE0FEA3E0FF8E028F051EBEFF011FEA4DC1
:205388007003025464758220C007C006124EC8D006D00780E090007DE024FDFDF08D0187EF
:2053A8001B09871C09871D191990006CE51BF0E51CA3F0E51DA3F090006EE0FDBD800040D2
:2053C800089000907443F08020BD600040089000907450F08013BD40004008900090744968
:2053E800F080069000907458F0900090E0FDF582C005124EC875823A124EC8758230124E12
:20540800C8758278124EC8D005BD4902800EBD5002800990006DE0F582124F2390006CE06E
:20542800F582124F23803D9000847401F0900089740AF0802F9000897408F08027900089B8
:20544800740AF0801F9000897410F080179000877401F0800F8B82124EC8800890008AEE43
:20546800F0EFA3F0900087E0607190007DE024FCFFF08F01870309870509870609870719F9
:20548800191990006CEBF0EDA3F0EEA3F0EFA3F090006C748BF0745FA3F07480A3F0900010
:2054A8006CE0F51BA3E0F51CA3E0F51D7401251BFAE4351CFBAF1D90006CEAF0EBA3F0EF71
:2054C800A3F0851B82851C83851DF01258D8FF7003024FD78F82124EC880C3900089E07098
:2054E80003024FD7900085E0604790007DE014F9F087077E007D007B0090006CEFF0EEA383
:20550800F0EDA3F0EBA3F0900084E060030255AF90006CE0FBA3E0A3E0A3E07D007E007F5E
:205528000090006CEBF0EDA3F0EEA3F0EFA3F08076900086E0602890007DE024FCFFF08F0A
:2055480001870309870509870609870719191990006CEBF0EDA3F0EEA3F0EFA3F0804890F9
:20556800007DE024FEFFF08F01870609870719EF3395E0FDFB90006CEEF0EFA3F0EDA3F07D
:20558800EBA3F0900084E0701E90006CE0FBA3E0FDA3E0A3E07E007F0090006CEBF0EDA342
:2055A800F0EEA3F0EFA3F0900084E0604190006CE0FBA3E0FDA3E0FEA3E0FF30E72B90002F
:2055C8006CE0FBA3E0FDA3E0FEA3E0FFC3E49BFBE49DFDE49EFEE49FFF90006CEBF0EDA3D5
:2055E800F0EEA3F0EFA3F08005900084E4F09000887401F0900089E0F519751E96751F0002
:20560800E4F516F517900070E4F0851982124F3F900088E07026900070E0C4F51B851E828C
:20562800851F83E0FFE51B4207851E82851F83EFF0151E74FFB51E02151F800C900070E0CD
:20564800FF851E82851F83F00516E4B516020517900088E0B40100E433F090006CE0FAA3F2
:20566800E0FBA3E0FEA3E0FFEA4B4E4F7097900097E51EF0E51FA3F090008EE516F0E517B5
:20568800A3F090008AE0F5F0A3E045F0700990008A7401F0E4A3F0900081E0FFE070479052
:2056A8000080E0704185161E85171F90008AE0FAA3E0FBC007AF1E0F8F067F00C3EE9AEFFA
:2056C8009BD0075019758220C007C003C002124EC8D002D003D0071ABAFF011B80D590000C
:2056E8008AEAF0EBA3F0900084E0602075822DC007124EC8D00790008AE024FFFDA3E03491
:20570800FFFE90008AEDF0EEA3F0805690008EE0F5F0A3E045F0604A900082E06020758288
:205728002BC007124EC8D00790008AE024FFFDA3E034FFFE90008AEDF0EEA3F080249000F6
:2057480083E0601E758220C007124EC8D00790008AE024FFFDA3E034FFFE90008AEDF0EED0
:20576800A3F0900080E0704890008EE0F51EA3E0F51F90008AE0FAA3E0FBC0078A068B07E3
:205788001ABAFF011BC3E51E9EE51F9FD0075053EF60067D307E0080047D207E008D82C0A3
:2057A80007C003C002124EC8D002D003D00780CA90008AE0FEA3E0FF90008EE0F51EA3E059
:2057C800F51FC3E51E9EE51F9F500F90008AEEC3951EF0EF951FA3F0801190008AE4F0A381
:2057E800F0800890008AEAF0EBA3F0900097E0FEA3E0FF90008EE0F51EA3E0F51FAA1EAD13
:205808001F151E74FFB51E02151FEA4D6045900088E0B40100E433F0900088E070140EBEDA
:2058280000010F8E828F83E0C4540FFD900070F0800E8E828F83E0FD53050F900070EDF069
:20584800900070E0F582C007C006124F03D006D00780AA900080E07003024FD790008AE09C
:20586800FEA3E0FF8E038F051EBEFF011FEB4D7003024FD7758220C007C006124EC8D0060B
:18588800D00780E08C82124EC8024FD7900071E0FEA3E08E82F5832267
:0B5F8B003C4E4F20464C4F41543E005E
:1858A000AA82AB831258D86003A380F8C3E5829AF582E5839BF58322FE
:2058B800AA83AB828BF0900099E0A4F8A9F08AF0E0A429F98BF0A3E0A429F583888222220C
:20300600E58124FCC3C8C0E0C082E608467006E5824583601218E58296F58208E583964298
:1B3026008208E5F0964582D082C8D0E0C822758120125960E58260030230033F
:1C58D80020F71430F6148883A88220F507E6A88375830022E280F7E49322E022DF
:2058F400A882A983AAF0FB88F090009BE0A4FCADF089F0E0A42DFDE435F0FE88F0A3E0A41C
:205914002DFDE5F03EFEE433FF89F0E0A42EFEE5F03FFF88F0A3E0A42EFEE5F03FFF8AF08E
:2059340090009BE0A42EFEE5F03FFF8BF0E0A42FFF8AF0A3E0A42FFF89F0A3E0A42FFF8813
:0C595400F0A3E0A42F8EF08D838C822243
:04596000758200222A
:00000001FF
